{
  "contractName": "ERC1155Royalty",
  "abi": [
    {
      "inputs": [
        {
          "internalType": "uint256",
          "name": "_tokenId",
          "type": "uint256"
        },
        {
          "internalType": "uint256",
          "name": "_salePrice",
          "type": "uint256"
        }
      ],
      "name": "royaltyInfo",
      "outputs": [
        {
          "internalType": "address",
          "name": "",
          "type": "address"
        },
        {
          "internalType": "uint256",
          "name": "",
          "type": "uint256"
        }
      ],
      "stateMutability": "view",
      "type": "function"
    },
    {
      "inputs": [
        {
          "internalType": "bytes4",
          "name": "interfaceId",
          "type": "bytes4"
        }
      ],
      "name": "supportsInterface",
      "outputs": [
        {
          "internalType": "bool",
          "name": "",
          "type": "bool"
        }
      ],
      "stateMutability": "view",
      "type": "function"
    },
    {
      "inputs": [
        {
          "internalType": "uint256",
          "name": "tokenId",
          "type": "uint256"
        },
        {
          "internalType": "address",
          "name": "recipient",
          "type": "address"
        },
        {
          "internalType": "uint96",
          "name": "fraction",
          "type": "uint96"
        }
      ],
      "name": "setTokenRoyalty",
      "outputs": [],
      "stateMutability": "nonpayable",
      "type": "function"
    },
    {
      "inputs": [
        {
          "internalType": "address",
          "name": "recipient",
          "type": "address"
        },
        {
          "internalType": "uint96",
          "name": "fraction",
          "type": "uint96"
        }
      ],
      "name": "setDefaultRoyalty",
      "outputs": [],
      "stateMutability": "nonpayable",
      "type": "function"
    },
    {
      "inputs": [],
      "name": "deleteDefaultRoyalty",
      "outputs": [],
      "stateMutability": "nonpayable",
      "type": "function"
    }
  ],
  "bytecode": "0x608060405234801561001057600080fd5b50610cd2806100206000396000f3fe608060405234801561001057600080fd5b50600436106100575760003560e01c806301ffc9a71461005c57806304634d8d1461008c5780632a55205a146100a85780635944c753146100d9578063aa1b103f146100f5575b600080fd5b610076600480360381019061007191906107e3565b6100ff565b604051610083919061082b565b60405180910390f35b6100a660048036038101906100a191906108e8565b610179565b005b6100c260048036038101906100bd919061095e565b610187565b6040516100d09291906109bc565b60405180910390f35b6100f360048036038101906100ee91906109e5565b610371565b005b6100fd610381565b005b60007f2a55205a000000000000000000000000000000000000000000000000000000007bffffffffffffffffffffffffffffffffffffffffffffffffffffffff1916827bffffffffffffffffffffffffffffffffffffffffffffffffffffffff1916148061017257506101718261038b565b5b9050919050565b61018382826103f5565b5050565b6000806000600160008681526020019081526020016000206040518060400160405290816000820160009054906101000a900473ffffffffffffffffffffffffffffffffffffffff1673ffffffffffffffffffffffffffffffffffffffff1673ffffffffffffffffffffffffffffffffffffffff1681526020016000820160149054906101000a90046bffffffffffffffffffffffff166bffffffffffffffffffffffff166bffffffffffffffffffffffff16815250509050600073ffffffffffffffffffffffffffffffffffffffff16816000015173ffffffffffffffffffffffffffffffffffffffff160361031c5760006040518060400160405290816000820160009054906101000a900473ffffffffffffffffffffffffffffffffffffffff1673ffffffffffffffffffffffffffffffffffffffff1673ffffffffffffffffffffffffffffffffffffffff1681526020016000820160149054906101000a90046bffffffffffffffffffffffff166bffffffffffffffffffffffff166bffffffffffffffffffffffff168152505090505b6000610326610589565b6bffffffffffffffffffffffff1682602001516bffffffffffffffffffffffff16866103529190610a67565b61035c9190610af0565b90508160000151819350935050509250929050565b61037c838383610592565b505050565b610389610739565b565b60007f01ffc9a7000000000000000000000000000000000000000000000000000000007bffffffffffffffffffffffffffffffffffffffffffffffffffffffff1916827bffffffffffffffffffffffffffffffffffffffffffffffffffffffff1916149050919050565b6103fd610589565b6bffffffffffffffffffffffff16816bffffffffffffffffffffffff16111561045b576040517f08c379a000000000000000000000000000000000000000000000000000000000815260040161045290610ba4565b60405180910390fd5b600073ffffffffffffffffffffffffffffffffffffffff168273ffffffffffffffffffffffffffffffffffffffff16036104ca576040517f08c379a00000000000000000000000000000000000000000000000000000000081526004016104c190610c10565b60405180910390fd5b60405180604001604052808373ffffffffffffffffffffffffffffffffffffffff168152602001826bffffffffffffffffffffffff168152506000808201518160000160006101000a81548173ffffffffffffffffffffffffffffffffffffffff021916908373ffffffffffffffffffffffffffffffffffffffff16021790555060208201518160000160146101000a8154816bffffffffffffffffffffffff02191690836bffffffffffffffffffffffff1602179055509050505050565b60006064905090565b61059a610589565b6bffffffffffffffffffffffff16816bffffffffffffffffffffffff1611156105f8576040517f08c379a00000000000000000000000000000000000000000000000000000000081526004016105ef90610ba4565b60405180910390fd5b600073ffffffffffffffffffffffffffffffffffffffff168273ffffffffffffffffffffffffffffffffffffffff1603610667576040517f08c379a000000000000000000000000000000000000000000000000000000000815260040161065e90610c7c565b60405180910390fd5b60405180604001604052808373ffffffffffffffffffffffffffffffffffffffff168152602001826bffffffffffffffffffffffff168152506001600085815260200190815260200160002060008201518160000160006101000a81548173ffffffffffffffffffffffffffffffffffffffff021916908373ffffffffffffffffffffffffffffffffffffffff16021790555060208201518160000160146101000a8154816bffffffffffffffffffffffff02191690836bffffffffffffffffffffffff160217905550905050505050565b6000806000820160006101000a81549073ffffffffffffffffffffffffffffffffffffffff02191690556000820160146101000a8154906bffffffffffffffffffffffff02191690555050565b600080fd5b60007fffffffff0000000000000000000000000000000000000000000000000000000082169050919050565b6107c08161078b565b81146107cb57600080fd5b50565b6000813590506107dd816107b7565b92915050565b6000602082840312156107f9576107f8610786565b5b6000610807848285016107ce565b91505092915050565b60008115159050919050565b61082581610810565b82525050565b6000602082019050610840600083018461081c565b92915050565b600073ffffffffffffffffffffffffffffffffffffffff82169050919050565b600061087182610846565b9050919050565b61088181610866565b811461088c57600080fd5b50565b60008135905061089e81610878565b92915050565b60006bffffffffffffffffffffffff82169050919050565b6108c5816108a4565b81146108d057600080fd5b50565b6000813590506108e2816108bc565b92915050565b600080604083850312156108ff576108fe610786565b5b600061090d8582860161088f565b925050602061091e858286016108d3565b9150509250929050565b6000819050919050565b61093b81610928565b811461094657600080fd5b50565b60008135905061095881610932565b92915050565b6000806040838503121561097557610974610786565b5b600061098385828601610949565b925050602061099485828601610949565b9150509250929050565b6109a781610866565b82525050565b6109b681610928565b82525050565b60006040820190506109d1600083018561099e565b6109de60208301846109ad565b9392505050565b6000806000606084860312156109fe576109fd610786565b5b6000610a0c86828701610949565b9350506020610a1d8682870161088f565b9250506040610a2e868287016108d3565b9150509250925092565b7f4e487b7100000000000000000000000000000000000000000000000000000000600052601160045260246000fd5b6000610a7282610928565b9150610a7d83610928565b9250817fffffffffffffffffffffffffffffffffffffffffffffffffffffffffffffffff0483118215151615610ab657610ab5610a38565b5b828202905092915050565b7f4e487b7100000000000000000000000000000000000000000000000000000000600052601260045260246000fd5b6000610afb82610928565b9150610b0683610928565b925082610b1657610b15610ac1565b5b828204905092915050565b600082825260208201905092915050565b7f455243323938313a20726f79616c7479206665652077696c6c2065786365656460008201527f2073616c65507269636500000000000000000000000000000000000000000000602082015250565b6000610b8e602a83610b21565b9150610b9982610b32565b604082019050919050565b60006020820190508181036000830152610bbd81610b81565b9050919050565b7f455243323938313a20696e76616c696420726563656976657200000000000000600082015250565b6000610bfa601983610b21565b9150610c0582610bc4565b602082019050919050565b60006020820190508181036000830152610c2981610bed565b9050919050565b7f455243323938313a20496e76616c696420706172616d65746572730000000000600082015250565b6000610c66601b83610b21565b9150610c7182610c30565b602082019050919050565b60006020820190508181036000830152610c9581610c59565b905091905056fea264697066735822122064ad33875760dfcdc02eec28d77a52692432b31585b5de151df8e4cbf44dcb0a64736f6c634300080d0033",
  "immutableReferences": {},
  "source": "// SPDX-License-Identifier: MIT\n\npragma solidity ^0.8.2;\nimport \"@openzeppelin/contracts/token/common/ERC2981.sol\";\n\ncontract ERC1155Royalty is ERC2981 { \n    // royality \n    function setTokenRoyalty(\n        uint256 tokenId,\n        address recipient,\n        uint96 fraction\n    ) public {\n        _setTokenRoyalty(tokenId, recipient, fraction);\n    }\n\n    function setDefaultRoyalty(address recipient, uint96 fraction) public {\n        _setDefaultRoyalty(recipient, fraction);\n    }\n\n    function deleteDefaultRoyalty() public {\n        _deleteDefaultRoyalty();\n    }\n   \n    function _feeDenominator() internal pure virtual override returns (uint96) {\n        return 100;\n    }\n   \n}",
  "sourcePath": "/home/deepanshu.tyagi/Desktop/kellton-nft-frontend/src/contracts/ERC1155Royalty.sol",
  "compiler": {
    "name": "solc",
    "version": "0.8.13+commit.abaa5c0e.Emscripten.clang"
  },
  "schemaVersion": "3.4.4",
  "updatedAt": "2022-05-17T10:07:54.909Z",
  "devdoc": {
    "kind": "dev",
    "methods": {
      "royaltyInfo(uint256,uint256)": {
        "details": "Returns how much royalty is owed and to whom, based on a sale price that may be denominated in any unit of exchange. The royalty amount is denominated and should be paid in that same unit of exchange."
      },
      "supportsInterface(bytes4)": {
        "details": "See {IERC165-supportsInterface}."
      }
    },
    "version": 1
  },
  "userdoc": {
    "kind": "user",
    "methods": {},
    "version": 1
  }
}