{
  "contractName": "NFT",
  "abi": [
    {
      "inputs": [
        {
          "internalType": "string",
          "name": "_initBaseURI",
          "type": "string"
        },
        {
          "internalType": "string",
          "name": "tokenName",
          "type": "string"
        },
        {
          "internalType": "string",
          "name": "tokenSymbol",
          "type": "string"
        }
      ],
      "stateMutability": "nonpayable",
      "type": "constructor"
    },
    {
      "anonymous": false,
      "inputs": [
        {
          "indexed": true,
          "internalType": "address",
          "name": "owner",
          "type": "address"
        },
        {
          "indexed": true,
          "internalType": "address",
          "name": "approved",
          "type": "address"
        },
        {
          "indexed": true,
          "internalType": "uint256",
          "name": "tokenId",
          "type": "uint256"
        }
      ],
      "name": "Approval",
      "type": "event"
    },
    {
      "anonymous": false,
      "inputs": [
        {
          "indexed": true,
          "internalType": "address",
          "name": "owner",
          "type": "address"
        },
        {
          "indexed": true,
          "internalType": "address",
          "name": "operator",
          "type": "address"
        },
        {
          "indexed": false,
          "internalType": "bool",
          "name": "approved",
          "type": "bool"
        }
      ],
      "name": "ApprovalForAll",
      "type": "event"
    },
    {
      "anonymous": false,
      "inputs": [
        {
          "indexed": true,
          "internalType": "address",
          "name": "previousOwner",
          "type": "address"
        },
        {
          "indexed": true,
          "internalType": "address",
          "name": "newOwner",
          "type": "address"
        }
      ],
      "name": "OwnershipTransferred",
      "type": "event"
    },
    {
      "anonymous": false,
      "inputs": [
        {
          "indexed": true,
          "internalType": "address",
          "name": "from",
          "type": "address"
        },
        {
          "indexed": true,
          "internalType": "address",
          "name": "to",
          "type": "address"
        },
        {
          "indexed": true,
          "internalType": "uint256",
          "name": "tokenId",
          "type": "uint256"
        }
      ],
      "name": "Transfer",
      "type": "event"
    },
    {
      "inputs": [
        {
          "internalType": "address",
          "name": "to",
          "type": "address"
        },
        {
          "internalType": "uint256",
          "name": "tokenId",
          "type": "uint256"
        }
      ],
      "name": "approve",
      "outputs": [],
      "stateMutability": "nonpayable",
      "type": "function"
    },
    {
      "inputs": [
        {
          "internalType": "address",
          "name": "owner",
          "type": "address"
        }
      ],
      "name": "balanceOf",
      "outputs": [
        {
          "internalType": "uint256",
          "name": "",
          "type": "uint256"
        }
      ],
      "stateMutability": "view",
      "type": "function",
      "constant": true
    },
    {
      "inputs": [
        {
          "internalType": "uint256",
          "name": "tokenId",
          "type": "uint256"
        }
      ],
      "name": "getApproved",
      "outputs": [
        {
          "internalType": "address",
          "name": "",
          "type": "address"
        }
      ],
      "stateMutability": "view",
      "type": "function",
      "constant": true
    },
    {
      "inputs": [
        {
          "internalType": "address",
          "name": "owner",
          "type": "address"
        },
        {
          "internalType": "address",
          "name": "operator",
          "type": "address"
        }
      ],
      "name": "isApprovedForAll",
      "outputs": [
        {
          "internalType": "bool",
          "name": "",
          "type": "bool"
        }
      ],
      "stateMutability": "view",
      "type": "function",
      "constant": true
    },
    {
      "inputs": [],
      "name": "name",
      "outputs": [
        {
          "internalType": "string",
          "name": "",
          "type": "string"
        }
      ],
      "stateMutability": "view",
      "type": "function",
      "constant": true
    },
    {
      "inputs": [],
      "name": "owner",
      "outputs": [
        {
          "internalType": "address",
          "name": "",
          "type": "address"
        }
      ],
      "stateMutability": "view",
      "type": "function",
      "constant": true
    },
    {
      "inputs": [
        {
          "internalType": "uint256",
          "name": "tokenId",
          "type": "uint256"
        }
      ],
      "name": "ownerOf",
      "outputs": [
        {
          "internalType": "address",
          "name": "",
          "type": "address"
        }
      ],
      "stateMutability": "view",
      "type": "function",
      "constant": true
    },
    {
      "inputs": [],
      "name": "renounceOwnership",
      "outputs": [],
      "stateMutability": "nonpayable",
      "type": "function"
    },
    {
      "inputs": [
        {
          "internalType": "address",
          "name": "from",
          "type": "address"
        },
        {
          "internalType": "address",
          "name": "to",
          "type": "address"
        },
        {
          "internalType": "uint256",
          "name": "tokenId",
          "type": "uint256"
        }
      ],
      "name": "safeTransferFrom",
      "outputs": [],
      "stateMutability": "nonpayable",
      "type": "function"
    },
    {
      "inputs": [
        {
          "internalType": "address",
          "name": "from",
          "type": "address"
        },
        {
          "internalType": "address",
          "name": "to",
          "type": "address"
        },
        {
          "internalType": "uint256",
          "name": "tokenId",
          "type": "uint256"
        },
        {
          "internalType": "bytes",
          "name": "_data",
          "type": "bytes"
        }
      ],
      "name": "safeTransferFrom",
      "outputs": [],
      "stateMutability": "nonpayable",
      "type": "function"
    },
    {
      "inputs": [
        {
          "internalType": "address",
          "name": "operator",
          "type": "address"
        },
        {
          "internalType": "bool",
          "name": "approved",
          "type": "bool"
        }
      ],
      "name": "setApprovalForAll",
      "outputs": [],
      "stateMutability": "nonpayable",
      "type": "function"
    },
    {
      "inputs": [
        {
          "internalType": "bytes4",
          "name": "interfaceId",
          "type": "bytes4"
        }
      ],
      "name": "supportsInterface",
      "outputs": [
        {
          "internalType": "bool",
          "name": "",
          "type": "bool"
        }
      ],
      "stateMutability": "view",
      "type": "function",
      "constant": true
    },
    {
      "inputs": [],
      "name": "symbol",
      "outputs": [
        {
          "internalType": "string",
          "name": "",
          "type": "string"
        }
      ],
      "stateMutability": "view",
      "type": "function",
      "constant": true
    },
    {
      "inputs": [
        {
          "internalType": "address",
          "name": "from",
          "type": "address"
        },
        {
          "internalType": "address",
          "name": "to",
          "type": "address"
        },
        {
          "internalType": "uint256",
          "name": "tokenId",
          "type": "uint256"
        }
      ],
      "name": "transferFrom",
      "outputs": [],
      "stateMutability": "nonpayable",
      "type": "function"
    },
    {
      "inputs": [
        {
          "internalType": "address",
          "name": "newOwner",
          "type": "address"
        }
      ],
      "name": "transferOwnership",
      "outputs": [],
      "stateMutability": "nonpayable",
      "type": "function"
    },
    {
      "inputs": [],
      "name": "mint",
      "outputs": [],
      "stateMutability": "nonpayable",
      "type": "function"
    },
    {
      "inputs": [
        {
          "internalType": "uint256",
          "name": "noOfTokens",
          "type": "uint256"
        }
      ],
      "name": "mintInBatch",
      "outputs": [],
      "stateMutability": "nonpayable",
      "type": "function"
    },
    {
      "inputs": [
        {
          "internalType": "uint256",
          "name": "tokenId",
          "type": "uint256"
        }
      ],
      "name": "tokenURI",
      "outputs": [
        {
          "internalType": "string",
          "name": "",
          "type": "string"
        }
      ],
      "stateMutability": "view",
      "type": "function",
      "constant": true
    },
    {
      "inputs": [
        {
          "internalType": "uint256",
          "name": "tokenId",
          "type": "uint256"
        },
        {
          "internalType": "uint256",
          "name": "price",
          "type": "uint256"
        }
      ],
      "name": "setTokenForSale",
      "outputs": [],
      "stateMutability": "nonpayable",
      "type": "function"
    },
    {
      "inputs": [
        {
          "internalType": "uint256",
          "name": "tokenId",
          "type": "uint256"
        },
        {
          "internalType": "uint256",
          "name": "price",
          "type": "uint256"
        }
      ],
      "name": "changeTokenPrice",
      "outputs": [],
      "stateMutability": "nonpayable",
      "type": "function"
    },
    {
      "inputs": [
        {
          "internalType": "uint256",
          "name": "tokenId",
          "type": "uint256"
        }
      ],
      "name": "buyNFT",
      "outputs": [],
      "stateMutability": "nonpayable",
      "type": "function"
    },
    {
      "inputs": [
        {
          "internalType": "uint256",
          "name": "tokenId",
          "type": "uint256"
        }
      ],
      "name": "removeTokenFromSale",
      "outputs": [],
      "stateMutability": "nonpayable",
      "type": "function"
    },
    {
      "inputs": [
        {
          "internalType": "uint256",
          "name": "tokenId",
          "type": "uint256"
        }
      ],
      "name": "isTokenForSale",
      "outputs": [
        {
          "internalType": "bool",
          "name": "",
          "type": "bool"
        }
      ],
      "stateMutability": "view",
      "type": "function",
      "constant": true
    },
    {
      "inputs": [
        {
          "internalType": "uint256",
          "name": "tokenId",
          "type": "uint256"
        }
      ],
      "name": "getTokenPrice",
      "outputs": [
        {
          "internalType": "uint256",
          "name": "",
          "type": "uint256"
        }
      ],
      "stateMutability": "view",
      "type": "function",
      "constant": true
    }
  ],
  "bytecode": "0x60806040526040518060400160405280600581526020017f2e6a736f6e000000000000000000000000000000000000000000000000000000815250600890805190602001906200005192919062000298565b503480156200005f57600080fd5b5060405162003f0c38038062003f0c8339818101604052810190620000859190620004e5565b818181600090805190602001906200009f92919062000298565b508060019080519060200190620000b892919062000298565b505050620000db620000cf620000f560201b60201c565b620000fd60201b60201c565b620000ec83620001c360201b60201c565b50505062000685565b600033905090565b6000600660009054906101000a900473ffffffffffffffffffffffffffffffffffffffff16905081600660006101000a81548173ffffffffffffffffffffffffffffffffffffffff021916908373ffffffffffffffffffffffffffffffffffffffff1602179055508173ffffffffffffffffffffffffffffffffffffffff168173ffffffffffffffffffffffffffffffffffffffff167f8be0079c531659141344cd1fd0a4f28419497f9722a3daafe3b4186f6b6457e060405160405180910390a35050565b620001d3620000f560201b60201c565b73ffffffffffffffffffffffffffffffffffffffff16620001f96200026e60201b60201c565b73ffffffffffffffffffffffffffffffffffffffff161462000252576040517f08c379a00000000000000000000000000000000000000000000000000000000081526004016200024990620005ff565b60405180910390fd5b80600790805190602001906200026a92919062000298565b5050565b6000600660009054906101000a900473ffffffffffffffffffffffffffffffffffffffff16905090565b828054620002a69062000650565b90600052602060002090601f016020900481019282620002ca576000855562000316565b82601f10620002e557805160ff191683800117855562000316565b8280016001018555821562000316579182015b8281111562000315578251825591602001919060010190620002f8565b5b50905062000325919062000329565b5090565b5b80821115620003445760008160009055506001016200032a565b5090565b6000604051905090565b600080fd5b600080fd5b600080fd5b600080fd5b6000601f19601f8301169050919050565b7f4e487b7100000000000000000000000000000000000000000000000000000000600052604160045260246000fd5b620003b18262000366565b810181811067ffffffffffffffff82111715620003d357620003d262000377565b5b80604052505050565b6000620003e862000348565b9050620003f68282620003a6565b919050565b600067ffffffffffffffff82111562000419576200041862000377565b5b620004248262000366565b9050602081019050919050565b60005b838110156200045157808201518184015260208101905062000434565b8381111562000461576000848401525b50505050565b60006200047e6200047884620003fb565b620003dc565b9050828152602081018484840111156200049d576200049c62000361565b5b620004aa84828562000431565b509392505050565b600082601f830112620004ca57620004c96200035c565b5b8151620004dc84826020860162000467565b91505092915050565b60008060006060848603121562000501576200050062000352565b5b600084015167ffffffffffffffff81111562000522576200052162000357565b5b6200053086828701620004b2565b935050602084015167ffffffffffffffff81111562000554576200055362000357565b5b6200056286828701620004b2565b925050604084015167ffffffffffffffff81111562000586576200058562000357565b5b6200059486828701620004b2565b9150509250925092565b600082825260208201905092915050565b7f4f776e61626c653a2063616c6c6572206973206e6f7420746865206f776e6572600082015250565b6000620005e76020836200059e565b9150620005f482620005af565b602082019050919050565b600060208201905081810360008301526200061a81620005d8565b9050919050565b7f4e487b7100000000000000000000000000000000000000000000000000000000600052602260045260246000fd5b600060028204905060018216806200066957607f821691505b6020821081036200067f576200067e62000621565b5b50919050565b61387780620006956000396000f3fe608060405234801561001057600080fd5b50600436106101585760003560e01c806370a08231116100c3578063c457fb371161007c578063c457fb371461039b578063c87b56dd146103cb578063cb233ce2146103fb578063e8cdea1114610417578063e985e9c514610433578063f2fde38b1461046357610158565b806370a08231146102ed578063715018a61461031d5780638da5cb5b1461032757806395d89b4114610345578063a22cb46514610363578063b88d4fde1461037f57610158565b806323b872dd1161011557806323b872dd1461021d57806342842e0e146102395780634fed1c941461025557806351ed82881461028557806362e8e8ac146102a15780636352211e146102bd57610158565b806301ffc9a71461015d57806306fdde031461018d578063081812fc146101ab578063095ea7b3146101db5780631249c58b146101f757806320477b8c14610201575b600080fd5b61017760048036038101906101729190612173565b61047f565b60405161018491906121bb565b60405180910390f35b610195610561565b6040516101a2919061226f565b60405180910390f35b6101c560048036038101906101c091906122c7565b6105f3565b6040516101d29190612335565b60405180910390f35b6101f560048036038101906101f0919061237c565b610678565b005b6101ff61078f565b005b61021b600480360381019061021691906122c7565b610813565b005b610237600480360381019061023291906123bc565b61083d565b005b610253600480360381019061024e91906123bc565b61089d565b005b61026f600480360381019061026a91906122c7565b6108bd565b60405161027c91906121bb565b60405180910390f35b61029f600480360381019061029a91906122c7565b6108e7565b005b6102bb60048036038101906102b6919061240f565b610ae3565b005b6102d760048036038101906102d291906122c7565b610c24565b6040516102e49190612335565b60405180910390f35b6103076004803603810190610302919061244f565b610cd5565b604051610314919061248b565b60405180910390f35b610325610d8c565b005b61032f610e14565b60405161033c9190612335565b60405180910390f35b61034d610e3e565b60405161035a919061226f565b60405180910390f35b61037d600480360381019061037891906124d2565b610ed0565b005b61039960048036038101906103949190612647565b610ee6565b005b6103b560048036038101906103b091906122c7565b610f48565b6040516103c2919061248b565b60405180910390f35b6103e560048036038101906103e091906122c7565b610f65565b6040516103f2919061226f565b60405180910390f35b6104156004803603810190610410919061240f565b61100f565b005b610431600480360381019061042c91906122c7565b61111c565b005b61044d600480360381019061044891906126ca565b611270565b60405161045a91906121bb565b60405180910390f35b61047d6004803603810190610478919061244f565b611304565b005b60007f80ac58cd000000000000000000000000000000000000000000000000000000007bffffffffffffffffffffffffffffffffffffffffffffffffffffffff1916827bffffffffffffffffffffffffffffffffffffffffffffffffffffffff1916148061054a57507f5b5e139f000000000000000000000000000000000000000000000000000000007bffffffffffffffffffffffffffffffffffffffffffffffffffffffff1916827bffffffffffffffffffffffffffffffffffffffffffffffffffffffff1916145b8061055a5750610559826113fb565b5b9050919050565b60606000805461057090612739565b80601f016020809104026020016040519081016040528092919081815260200182805461059c90612739565b80156105e95780601f106105be576101008083540402835291602001916105e9565b820191906000526020600020905b8154815290600101906020018083116105cc57829003601f168201915b5050505050905090565b60006105fe82611465565b61063d576040517f08c379a0000000000000000000000000000000000000000000000000000000008152600401610634906127dc565b60405180910390fd5b6004600083815260200190815260200160002060009054906101000a900473ffffffffffffffffffffffffffffffffffffffff169050919050565b600061068382610c24565b90508073ffffffffffffffffffffffffffffffffffffffff168373ffffffffffffffffffffffffffffffffffffffff16036106f3576040517f08c379a00000000000000000000000000000000000000000000000000000000081526004016106ea9061286e565b60405180910390fd5b8073ffffffffffffffffffffffffffffffffffffffff166107126114d1565b73ffffffffffffffffffffffffffffffffffffffff16148061074157506107408161073b6114d1565b611270565b5b610780576040517f08c379a000000000000000000000000000000000000000000000000000000000815260040161077790612900565b60405180910390fd5b61078a83836114d9565b505050565b610799600b611592565b60006107a5600b6115a8565b9050600d8190806001815401808255809150506001900390600052602060002001600090919091909150556107da33826115b6565b60006009600083815260200190815260200160002060006101000a81548160ff02191690831515021790555061080f81610f65565b5050565b60005b818110156108395761082661078f565b80806108319061294f565b915050610816565b5050565b61084e6108486114d1565b8261178f565b61088d576040517f08c379a000000000000000000000000000000000000000000000000000000000815260040161088490612a09565b60405180910390fd5b61089883838361186d565b505050565b6108b883838360405180602001604052806000815250610ee6565b505050565b60006009600083815260200190815260200160002060009054906101000a900460ff169050919050565b6009600082815260200190815260200160002060009054906101000a900460ff16610947576040517f08c379a000000000000000000000000000000000000000000000000000000000815260040161093e90612a75565b60405180910390fd5b600061095282610c24565b9050600073ffffffffffffffffffffffffffffffffffffffff166109746114d1565b73ffffffffffffffffffffffffffffffffffffffff16036109ca576040517f08c379a00000000000000000000000000000000000000000000000000000000081526004016109c190612ae1565b60405180910390fd5b8073ffffffffffffffffffffffffffffffffffffffff166109e96114d1565b73ffffffffffffffffffffffffffffffffffffffff1603610a3f576040517f08c379a0000000000000000000000000000000000000000000000000000000008152600401610a3690612b4d565b60405180910390fd5b610a5181610a4b6114d1565b8461186d565b60006009600084815260200190815260200160002060006101000a81548160ff02191690831515021790555081610a866114d1565b73ffffffffffffffffffffffffffffffffffffffff168273ffffffffffffffffffffffffffffffffffffffff167fddf252ad1be2c89b69c2b068fc378daa952ba7f163c4a11628f55a4df523b3ef60405160405180910390a45050565b610aec82611465565b610b2b576040517f08c379a0000000000000000000000000000000000000000000000000000000008152600401610b2290612bb9565b60405180910390fd5b6009600083815260200190815260200160002060009054906101000a900460ff16610b8b576040517f08c379a0000000000000000000000000000000000000000000000000000000008152600401610b8290612c4b565b60405180910390fd5b610b936114d1565b73ffffffffffffffffffffffffffffffffffffffff16610bb283610c24565b73ffffffffffffffffffffffffffffffffffffffff1614610c08576040517f08c379a0000000000000000000000000000000000000000000000000000000008152600401610bff90612cb7565b60405180910390fd5b80600a6000848152602001908152602001600020819055505050565b6000806002600084815260200190815260200160002060009054906101000a900473ffffffffffffffffffffffffffffffffffffffff169050600073ffffffffffffffffffffffffffffffffffffffff168173ffffffffffffffffffffffffffffffffffffffff1603610ccc576040517f08c379a0000000000000000000000000000000000000000000000000000000008152600401610cc390612d49565b60405180910390fd5b80915050919050565b60008073ffffffffffffffffffffffffffffffffffffffff168273ffffffffffffffffffffffffffffffffffffffff1603610d45576040517f08c379a0000000000000000000000000000000000000000000000000000000008152600401610d3c90612ddb565b60405180910390fd5b600360008373ffffffffffffffffffffffffffffffffffffffff1673ffffffffffffffffffffffffffffffffffffffff168152602001908152602001600020549050919050565b610d946114d1565b73ffffffffffffffffffffffffffffffffffffffff16610db2610e14565b73ffffffffffffffffffffffffffffffffffffffff1614610e08576040517f08c379a0000000000000000000000000000000000000000000000000000000008152600401610dff90612e47565b60405180910390fd5b610e126000611ad3565b565b6000600660009054906101000a900473ffffffffffffffffffffffffffffffffffffffff16905090565b606060018054610e4d90612739565b80601f0160208091040260200160405190810160405280929190818152602001828054610e7990612739565b8015610ec65780601f10610e9b57610100808354040283529160200191610ec6565b820191906000526020600020905b815481529060010190602001808311610ea957829003601f168201915b5050505050905090565b610ee2610edb6114d1565b8383611b99565b5050565b610ef7610ef16114d1565b8361178f565b610f36576040517f08c379a0000000000000000000000000000000000000000000000000000000008152600401610f2d90612a09565b60405180910390fd5b610f4284848484611d05565b50505050565b6000600a6000838152602001908152602001600020549050919050565b6060610f7082611465565b610faf576040517f08c379a0000000000000000000000000000000000000000000000000000000008152600401610fa690612ed9565b60405180910390fd5b6000610fb9611d61565b90506000815111610fd95760405180602001604052806000815250611007565b80610fe384611df3565b6008604051602001610ff793929190612fc9565b6040516020818303038152906040525b915050919050565b61101882611465565b611057576040517f08c379a000000000000000000000000000000000000000000000000000000000815260040161104e90612bb9565b60405180910390fd5b61105f6114d1565b73ffffffffffffffffffffffffffffffffffffffff1661107e83610c24565b73ffffffffffffffffffffffffffffffffffffffff16146110d4576040517f08c379a00000000000000000000000000000000000000000000000000000000081526004016110cb9061306c565b60405180910390fd5b60016009600084815260200190815260200160002060006101000a81548160ff02191690831515021790555080600a6000848152602001908152602001600020819055505050565b61112581611465565b611164576040517f08c379a000000000000000000000000000000000000000000000000000000000815260040161115b906130d8565b60405180910390fd5b6009600082815260200190815260200160002060009054906101000a900460ff166111c4576040517f08c379a00000000000000000000000000000000000000000000000000000000081526004016111bb9061316a565b60405180910390fd5b6111cc6114d1565b73ffffffffffffffffffffffffffffffffffffffff166111eb82610c24565b73ffffffffffffffffffffffffffffffffffffffff1614611241576040517f08c379a0000000000000000000000000000000000000000000000000000000008152600401611238906131d6565b60405180910390fd5b60006009600083815260200190815260200160002060006101000a81548160ff02191690831515021790555050565b6000600560008473ffffffffffffffffffffffffffffffffffffffff1673ffffffffffffffffffffffffffffffffffffffff16815260200190815260200160002060008373ffffffffffffffffffffffffffffffffffffffff1673ffffffffffffffffffffffffffffffffffffffff16815260200190815260200160002060009054906101000a900460ff16905092915050565b61130c6114d1565b73ffffffffffffffffffffffffffffffffffffffff1661132a610e14565b73ffffffffffffffffffffffffffffffffffffffff1614611380576040517f08c379a000000000000000000000000000000000000000000000000000000000815260040161137790612e47565b60405180910390fd5b600073ffffffffffffffffffffffffffffffffffffffff168173ffffffffffffffffffffffffffffffffffffffff16036113ef576040517f08c379a00000000000000000000000000000000000000000000000000000000081526004016113e690613268565b60405180910390fd5b6113f881611ad3565b50565b60007f01ffc9a7000000000000000000000000000000000000000000000000000000007bffffffffffffffffffffffffffffffffffffffffffffffffffffffff1916827bffffffffffffffffffffffffffffffffffffffffffffffffffffffff1916149050919050565b60008073ffffffffffffffffffffffffffffffffffffffff166002600084815260200190815260200160002060009054906101000a900473ffffffffffffffffffffffffffffffffffffffff1673ffffffffffffffffffffffffffffffffffffffff1614159050919050565b600033905090565b816004600083815260200190815260200160002060006101000a81548173ffffffffffffffffffffffffffffffffffffffff021916908373ffffffffffffffffffffffffffffffffffffffff160217905550808273ffffffffffffffffffffffffffffffffffffffff1661154c83610c24565b73ffffffffffffffffffffffffffffffffffffffff167f8c5be1e5ebec7d5bd14f71427d1e84f3dd0314c0f7b2291e5b200ac8c7c3b92560405160405180910390a45050565b6001816000016000828254019250508190555050565b600081600001549050919050565b600073ffffffffffffffffffffffffffffffffffffffff168273ffffffffffffffffffffffffffffffffffffffff1603611625576040517f08c379a000000000000000000000000000000000000000000000000000000000815260040161161c906132d4565b60405180910390fd5b61162e81611465565b1561166e576040517f08c379a000000000000000000000000000000000000000000000000000000000815260040161166590613340565b60405180910390fd5b61167a60008383611f53565b6001600360008473ffffffffffffffffffffffffffffffffffffffff1673ffffffffffffffffffffffffffffffffffffffff16815260200190815260200160002060008282546116ca9190613360565b92505081905550816002600083815260200190815260200160002060006101000a81548173ffffffffffffffffffffffffffffffffffffffff021916908373ffffffffffffffffffffffffffffffffffffffff160217905550808273ffffffffffffffffffffffffffffffffffffffff16600073ffffffffffffffffffffffffffffffffffffffff167fddf252ad1be2c89b69c2b068fc378daa952ba7f163c4a11628f55a4df523b3ef60405160405180910390a461178b60008383611f58565b5050565b600061179a82611465565b6117d9576040517f08c379a00000000000000000000000000000000000000000000000000000000081526004016117d090613428565b60405180910390fd5b60006117e483610c24565b90508073ffffffffffffffffffffffffffffffffffffffff168473ffffffffffffffffffffffffffffffffffffffff16148061182657506118258185611270565b5b8061186457508373ffffffffffffffffffffffffffffffffffffffff1661184c846105f3565b73ffffffffffffffffffffffffffffffffffffffff16145b91505092915050565b8273ffffffffffffffffffffffffffffffffffffffff1661188d82610c24565b73ffffffffffffffffffffffffffffffffffffffff16146118e3576040517f08c379a00000000000000000000000000000000000000000000000000000000081526004016118da906134ba565b60405180910390fd5b600073ffffffffffffffffffffffffffffffffffffffff168273ffffffffffffffffffffffffffffffffffffffff1603611952576040517f08c379a00000000000000000000000000000000000000000000000000000000081526004016119499061354c565b60405180910390fd5b61195d838383611f53565b6119686000826114d9565b6001600360008573ffffffffffffffffffffffffffffffffffffffff1673ffffffffffffffffffffffffffffffffffffffff16815260200190815260200160002060008282546119b8919061356c565b925050819055506001600360008473ffffffffffffffffffffffffffffffffffffffff1673ffffffffffffffffffffffffffffffffffffffff1681526020019081526020016000206000828254611a0f9190613360565b92505081905550816002600083815260200190815260200160002060006101000a81548173ffffffffffffffffffffffffffffffffffffffff021916908373ffffffffffffffffffffffffffffffffffffffff160217905550808273ffffffffffffffffffffffffffffffffffffffff168473ffffffffffffffffffffffffffffffffffffffff167fddf252ad1be2c89b69c2b068fc378daa952ba7f163c4a11628f55a4df523b3ef60405160405180910390a4611ace838383611f58565b505050565b6000600660009054906101000a900473ffffffffffffffffffffffffffffffffffffffff16905081600660006101000a81548173ffffffffffffffffffffffffffffffffffffffff021916908373ffffffffffffffffffffffffffffffffffffffff1602179055508173ffffffffffffffffffffffffffffffffffffffff168173ffffffffffffffffffffffffffffffffffffffff167f8be0079c531659141344cd1fd0a4f28419497f9722a3daafe3b4186f6b6457e060405160405180910390a35050565b8173ffffffffffffffffffffffffffffffffffffffff168373ffffffffffffffffffffffffffffffffffffffff1603611c07576040517f08c379a0000000000000000000000000000000000000000000000000000000008152600401611bfe906135ec565b60405180910390fd5b80600560008573ffffffffffffffffffffffffffffffffffffffff1673ffffffffffffffffffffffffffffffffffffffff16815260200190815260200160002060008473ffffffffffffffffffffffffffffffffffffffff1673ffffffffffffffffffffffffffffffffffffffff16815260200190815260200160002060006101000a81548160ff0219169083151502179055508173ffffffffffffffffffffffffffffffffffffffff168373ffffffffffffffffffffffffffffffffffffffff167f17307eab39ab6107e8899845ad3d59bd9653f200f220920489ca2b5937696c3183604051611cf891906121bb565b60405180910390a3505050565b611d1084848461186d565b611d1c84848484611f5d565b611d5b576040517f08c379a0000000000000000000000000000000000000000000000000000000008152600401611d529061367e565b60405180910390fd5b50505050565b606060078054611d7090612739565b80601f0160208091040260200160405190810160405280929190818152602001828054611d9c90612739565b8015611de95780601f10611dbe57610100808354040283529160200191611de9565b820191906000526020600020905b815481529060010190602001808311611dcc57829003601f168201915b5050505050905090565b606060008203611e3a576040518060400160405280600181526020017f30000000000000000000000000000000000000000000000000000000000000008152509050611f4e565b600082905060005b60008214611e6c578080611e559061294f565b915050600a82611e6591906136cd565b9150611e42565b60008167ffffffffffffffff811115611e8857611e8761251c565b5b6040519080825280601f01601f191660200182016040528015611eba5781602001600182028036833780820191505090505b5090505b60008514611f4757600182611ed3919061356c565b9150600a85611ee291906136fe565b6030611eee9190613360565b60f81b818381518110611f0457611f0361372f565b5b60200101907effffffffffffffffffffffffffffffffffffffffffffffffffffffffffffff1916908160001a905350600a85611f4091906136cd565b9450611ebe565b8093505050505b919050565b505050565b505050565b6000611f7e8473ffffffffffffffffffffffffffffffffffffffff166120e4565b156120d7578373ffffffffffffffffffffffffffffffffffffffff1663150b7a02611fa76114d1565b8786866040518563ffffffff1660e01b8152600401611fc994939291906137b3565b6020604051808303816000875af192505050801561200557506040513d601f19601f820116820180604052508101906120029190613814565b60015b612087573d8060008114612035576040519150601f19603f3d011682016040523d82523d6000602084013e61203a565b606091505b50600081510361207f576040517f08c379a00000000000000000000000000000000000000000000000000000000081526004016120769061367e565b60405180910390fd5b805181602001fd5b63150b7a0260e01b7bffffffffffffffffffffffffffffffffffffffffffffffffffffffff1916817bffffffffffffffffffffffffffffffffffffffffffffffffffffffff1916149150506120dc565b600190505b949350505050565b6000808273ffffffffffffffffffffffffffffffffffffffff163b119050919050565b6000604051905090565b600080fd5b600080fd5b60007fffffffff0000000000000000000000000000000000000000000000000000000082169050919050565b6121508161211b565b811461215b57600080fd5b50565b60008135905061216d81612147565b92915050565b60006020828403121561218957612188612111565b5b60006121978482850161215e565b91505092915050565b60008115159050919050565b6121b5816121a0565b82525050565b60006020820190506121d060008301846121ac565b92915050565b600081519050919050565b600082825260208201905092915050565b60005b838110156122105780820151818401526020810190506121f5565b8381111561221f576000848401525b50505050565b6000601f19601f8301169050919050565b6000612241826121d6565b61224b81856121e1565b935061225b8185602086016121f2565b61226481612225565b840191505092915050565b600060208201905081810360008301526122898184612236565b905092915050565b6000819050919050565b6122a481612291565b81146122af57600080fd5b50565b6000813590506122c18161229b565b92915050565b6000602082840312156122dd576122dc612111565b5b60006122eb848285016122b2565b91505092915050565b600073ffffffffffffffffffffffffffffffffffffffff82169050919050565b600061231f826122f4565b9050919050565b61232f81612314565b82525050565b600060208201905061234a6000830184612326565b92915050565b61235981612314565b811461236457600080fd5b50565b60008135905061237681612350565b92915050565b6000806040838503121561239357612392612111565b5b60006123a185828601612367565b92505060206123b2858286016122b2565b9150509250929050565b6000806000606084860312156123d5576123d4612111565b5b60006123e386828701612367565b93505060206123f486828701612367565b9250506040612405868287016122b2565b9150509250925092565b6000806040838503121561242657612425612111565b5b6000612434858286016122b2565b9250506020612445858286016122b2565b9150509250929050565b60006020828403121561246557612464612111565b5b600061247384828501612367565b91505092915050565b61248581612291565b82525050565b60006020820190506124a0600083018461247c565b92915050565b6124af816121a0565b81146124ba57600080fd5b50565b6000813590506124cc816124a6565b92915050565b600080604083850312156124e9576124e8612111565b5b60006124f785828601612367565b9250506020612508858286016124bd565b9150509250929050565b600080fd5b600080fd5b7f4e487b7100000000000000000000000000000000000000000000000000000000600052604160045260246000fd5b61255482612225565b810181811067ffffffffffffffff821117156125735761257261251c565b5b80604052505050565b6000612586612107565b9050612592828261254b565b919050565b600067ffffffffffffffff8211156125b2576125b161251c565b5b6125bb82612225565b9050602081019050919050565b82818337600083830152505050565b60006125ea6125e584612597565b61257c565b90508281526020810184848401111561260657612605612517565b5b6126118482856125c8565b509392505050565b600082601f83011261262e5761262d612512565b5b813561263e8482602086016125d7565b91505092915050565b6000806000806080858703121561266157612660612111565b5b600061266f87828801612367565b945050602061268087828801612367565b9350506040612691878288016122b2565b925050606085013567ffffffffffffffff8111156126b2576126b1612116565b5b6126be87828801612619565b91505092959194509250565b600080604083850312156126e1576126e0612111565b5b60006126ef85828601612367565b925050602061270085828601612367565b9150509250929050565b7f4e487b7100000000000000000000000000000000000000000000000000000000600052602260045260246000fd5b6000600282049050600182168061275157607f821691505b6020821081036127645761276361270a565b5b50919050565b7f4552433732313a20617070726f76656420717565727920666f72206e6f6e657860008201527f697374656e7420746f6b656e0000000000000000000000000000000000000000602082015250565b60006127c6602c836121e1565b91506127d18261276a565b604082019050919050565b600060208201905081810360008301526127f5816127b9565b9050919050565b7f4552433732313a20617070726f76616c20746f2063757272656e74206f776e6560008201527f7200000000000000000000000000000000000000000000000000000000000000602082015250565b60006128586021836121e1565b9150612863826127fc565b604082019050919050565b600060208201905081810360008301526128878161284b565b9050919050565b7f4552433732313a20617070726f76652063616c6c6572206973206e6f74206f7760008201527f6e6572206e6f7220617070726f76656420666f7220616c6c0000000000000000602082015250565b60006128ea6038836121e1565b91506128f58261288e565b604082019050919050565b60006020820190508181036000830152612919816128dd565b9050919050565b7f4e487b7100000000000000000000000000000000000000000000000000000000600052601160045260246000fd5b600061295a82612291565b91507fffffffffffffffffffffffffffffffffffffffffffffffffffffffffffffffff820361298c5761298b612920565b5b600182019050919050565b7f4552433732313a207472616e736665722063616c6c6572206973206e6f74206f60008201527f776e6572206e6f7220617070726f766564000000000000000000000000000000602082015250565b60006129f36031836121e1565b91506129fe82612997565b604082019050919050565b60006020820190508181036000830152612a22816129e6565b9050919050565b7f546f6b656e2069732063757272656e746c79206e6f7420666f722073616c6521600082015250565b6000612a5f6020836121e1565b9150612a6a82612a29565b602082019050919050565b60006020820190508181036000830152612a8e81612a52565b9050919050565b7f427579657220616464726573732063616e6e6f74206265207a65726f00000000600082015250565b6000612acb601c836121e1565b9150612ad682612a95565b602082019050919050565b60006020820190508181036000830152612afa81612abe565b9050919050565b7f43616e6e6f7420627579206f776e6564204e4654000000000000000000000000600082015250565b6000612b376014836121e1565b9150612b4282612b01565b602082019050919050565b60006020820190508181036000830152612b6681612b2a565b9050919050565b7f546f6b656e20646f6573206e6f74206578697374210000000000000000000000600082015250565b6000612ba36015836121e1565b9150612bae82612b6d565b602082019050919050565b60006020820190508181036000830152612bd281612b96565b9050919050565b7f546f6b656e206973206e6f7420666f722073616c652c2073657420697420736160008201527f6c65206669727374210000000000000000000000000000000000000000000000602082015250565b6000612c356029836121e1565b9150612c4082612bd9565b604082019050919050565b60006020820190508181036000830152612c6481612c28565b9050919050565b7f4f6e6c79206f776e65722063616e20736574207468652076616c756521000000600082015250565b6000612ca1601d836121e1565b9150612cac82612c6b565b602082019050919050565b60006020820190508181036000830152612cd081612c94565b9050919050565b7f4552433732313a206f776e657220717565727920666f72206e6f6e657869737460008201527f656e7420746f6b656e0000000000000000000000000000000000000000000000602082015250565b6000612d336029836121e1565b9150612d3e82612cd7565b604082019050919050565b60006020820190508181036000830152612d6281612d26565b9050919050565b7f4552433732313a2062616c616e636520717565727920666f7220746865207a6560008201527f726f206164647265737300000000000000000000000000000000000000000000602082015250565b6000612dc5602a836121e1565b9150612dd082612d69565b604082019050919050565b60006020820190508181036000830152612df481612db8565b9050919050565b7f4f776e61626c653a2063616c6c6572206973206e6f7420746865206f776e6572600082015250565b6000612e316020836121e1565b9150612e3c82612dfb565b602082019050919050565b60006020820190508181036000830152612e6081612e24565b9050919050565b7f4552433732314d657461646174613a2055524920717565727920666f72206e6f60008201527f6e6578697374656e7420746f6b656e0000000000000000000000000000000000602082015250565b6000612ec3602f836121e1565b9150612ece82612e67565b604082019050919050565b60006020820190508181036000830152612ef281612eb6565b9050919050565b600081905092915050565b6000612f0f826121d6565b612f198185612ef9565b9350612f298185602086016121f2565b80840191505092915050565b60008190508160005260206000209050919050565b60008154612f5781612739565b612f618186612ef9565b94506001821660008114612f7c5760018114612f8d57612fc0565b60ff19831686528186019350612fc0565b612f9685612f35565b60005b83811015612fb857815481890152600182019150602081019050612f99565b838801955050505b50505092915050565b6000612fd58286612f04565b9150612fe18285612f04565b9150612fed8284612f4a565b9150819050949350505050565b7f4f6e6c79206f776e65722063616e20736574206120746f6b656e20666f72207360008201527f616c652100000000000000000000000000000000000000000000000000000000602082015250565b60006130566024836121e1565b915061306182612ffa565b604082019050919050565b6000602082019050818103600083015261308581613049565b9050919050565b7f546f6b656e20646f6573206e6f74206578697374000000000000000000000000600082015250565b60006130c26014836121e1565b91506130cd8261308c565b602082019050919050565b600060208201905081810360008301526130f1816130b5565b9050919050565b7f546f6b656e20697320616c72656164792073657420746f206e6f7420666f722060008201527f73616c6500000000000000000000000000000000000000000000000000000000602082015250565b60006131546024836121e1565b915061315f826130f8565b604082019050919050565b6000602082019050818103600083015261318381613147565b9050919050565b7f4f6e6c7920746f6b656e206f776e65722063616e207365742076616c75650000600082015250565b60006131c0601e836121e1565b91506131cb8261318a565b602082019050919050565b600060208201905081810360008301526131ef816131b3565b9050919050565b7f4f776e61626c653a206e6577206f776e657220697320746865207a65726f206160008201527f6464726573730000000000000000000000000000000000000000000000000000602082015250565b60006132526026836121e1565b915061325d826131f6565b604082019050919050565b6000602082019050818103600083015261328181613245565b9050919050565b7f4552433732313a206d696e7420746f20746865207a65726f2061646472657373600082015250565b60006132be6020836121e1565b91506132c982613288565b602082019050919050565b600060208201905081810360008301526132ed816132b1565b9050919050565b7f4552433732313a20746f6b656e20616c7265616479206d696e74656400000000600082015250565b600061332a601c836121e1565b9150613335826132f4565b602082019050919050565b600060208201905081810360008301526133598161331d565b9050919050565b600061336b82612291565b915061337683612291565b9250827fffffffffffffffffffffffffffffffffffffffffffffffffffffffffffffffff038211156133ab576133aa612920565b5b828201905092915050565b7f4552433732313a206f70657261746f7220717565727920666f72206e6f6e657860008201527f697374656e7420746f6b656e0000000000000000000000000000000000000000602082015250565b6000613412602c836121e1565b915061341d826133b6565b604082019050919050565b6000602082019050818103600083015261344181613405565b9050919050565b7f4552433732313a207472616e736665722066726f6d20696e636f72726563742060008201527f6f776e6572000000000000000000000000000000000000000000000000000000602082015250565b60006134a46025836121e1565b91506134af82613448565b604082019050919050565b600060208201905081810360008301526134d381613497565b9050919050565b7f4552433732313a207472616e7366657220746f20746865207a65726f2061646460008201527f7265737300000000000000000000000000000000000000000000000000000000602082015250565b60006135366024836121e1565b9150613541826134da565b604082019050919050565b6000602082019050818103600083015261356581613529565b9050919050565b600061357782612291565b915061358283612291565b92508282101561359557613594612920565b5b828203905092915050565b7f4552433732313a20617070726f766520746f2063616c6c657200000000000000600082015250565b60006135d66019836121e1565b91506135e1826135a0565b602082019050919050565b60006020820190508181036000830152613605816135c9565b9050919050565b7f4552433732313a207472616e7366657220746f206e6f6e20455243373231526560008201527f63656976657220696d706c656d656e7465720000000000000000000000000000602082015250565b60006136686032836121e1565b91506136738261360c565b604082019050919050565b600060208201905081810360008301526136978161365b565b9050919050565b7f4e487b7100000000000000000000000000000000000000000000000000000000600052601260045260246000fd5b60006136d882612291565b91506136e383612291565b9250826136f3576136f261369e565b5b828204905092915050565b600061370982612291565b915061371483612291565b9250826137245761372361369e565b5b828206905092915050565b7f4e487b7100000000000000000000000000000000000000000000000000000000600052603260045260246000fd5b600081519050919050565b600082825260208201905092915050565b60006137858261375e565b61378f8185613769565b935061379f8185602086016121f2565b6137a881612225565b840191505092915050565b60006080820190506137c86000830187612326565b6137d56020830186612326565b6137e2604083018561247c565b81810360608301526137f4818461377a565b905095945050505050565b60008151905061380e81612147565b92915050565b60006020828403121561382a57613829612111565b5b6000613838848285016137ff565b9150509291505056fea2646970667358221220669cf4962c65e94c93cd3a26f1a2ef7d31584960f5d765b4f3b23ae717959fc564736f6c634300080d0033",
  "immutableReferences": {},
  "source": "// SPDX-License-Identifier: MIT\npragma solidity ^0.8.0;\n\nimport \"@openzeppelin/contracts/token/ERC721/ERC721.sol\";\nimport \"@openzeppelin/contracts/utils/Counters.sol\";\nimport \"@openzeppelin/contracts/access/Ownable.sol\";\n\ncontract NFT is ERC721, Ownable {\n    using Counters for Counters.Counter;\n    using Strings for uint256;\n\n    string private baseURI;\n    string private baseExtension = \".json\";\n\n    mapping(uint256 =>bool ) private _tokenForSale;\n    mapping(uint256 =>uint ) private _tokenPrice;\n\n    Counters.Counter private _tokenIds;\n    mapping(string => bool) private _tokenExists ;\n    uint256[] private totalTokens;\n\n    constructor(string memory _initBaseURI, string memory tokenName, string memory tokenSymbol) ERC721(tokenName, tokenSymbol) {\n        setBaseURI(_initBaseURI);\n    }\n\n    function mint() public\n    {   _tokenIds.increment();\n        uint256 newItemId = _tokenIds.current();\n        totalTokens.push(newItemId);\n        _mint(msg.sender, newItemId);\n        _tokenForSale[newItemId] = false ;\n        tokenURI(newItemId);\n    }\n\n    function mintInBatch(uint256 noOfTokens) public {\n        for(uint256 i=0;i<noOfTokens;i++) {\n            mint();\n        }      \n    }\n    \n    function setBaseURI(string memory _newBaseURI) internal onlyOwner {\n        baseURI = _newBaseURI;\n    }\n    function _baseURI() internal view virtual override returns (string memory) {\n        return baseURI;\n    }\n\n    function tokenURI(uint256 tokenId) public view virtual override returns (string memory) {\n        require(_exists(tokenId),\"ERC721Metadata: URI query for nonexistent token\");\n        string memory currentBaseURI = _baseURI();\n        return\n            bytes(currentBaseURI).length > 0 ? string(abi.encodePacked(currentBaseURI,tokenId.toString(),baseExtension)): \"\";\n    }\n\n    function setTokenForSale(uint256 tokenId, uint256 price) public {\n        require(_exists(tokenId),\"Token does not exist!\");\n        require(ownerOf(tokenId) == _msgSender(),\"Only owner can set a token for sale!\");\n        _tokenForSale[tokenId] = true;\n        _tokenPrice[tokenId] = price;\n    }\n\n    function changeTokenPrice( uint256 tokenId,uint256 price) public {\n        require(_exists(tokenId),\"Token does not exist!\");\n        require(_tokenForSale[tokenId],\"Token is not for sale, set it sale first!\");\n        require(ownerOf(tokenId) == _msgSender(),\"Only owner can set the value!\");\n        _tokenPrice[tokenId] = price;\n    }\n\n    function buyNFT(uint256 tokenId)public {\n        require(_tokenForSale[tokenId],\"Token is currently not for sale!\");\n        address owner = ownerOf(tokenId);\n        require(_msgSender() != address(0),\"Buyer address cannot be zero\");\n        require(_msgSender() != owner , \"Cannot buy owned NFT\");\n        _transfer(owner,_msgSender(),tokenId);\n        _tokenForSale[tokenId] = false;\n        emit Transfer(owner,_msgSender(),tokenId);\n    }\n\n    function removeTokenFromSale(uint256 tokenId)public{\n        require(_exists(tokenId),\"Token does not exist\");\n        require(_tokenForSale[tokenId],\"Token is already set to not for sale\");\n        require(ownerOf(tokenId) == _msgSender(),\"Only token owner can set value\");\n        _tokenForSale[tokenId] = false;\n    }\n\n    function isTokenForSale(uint256 tokenId)public view returns(bool){\n        return _tokenForSale[tokenId];\n    }\n    function getTokenPrice(uint256 tokenId)public view returns(uint){\n        return _tokenPrice[tokenId];\n    }   \n}",
  "sourcePath": "/home/deepanshu.rajput/Desktop/kellton-nft-frontend/src/contracts/NFT.sol",
  "compiler": {
    "name": "solc",
    "version": "0.8.13+commit.abaa5c0e.Emscripten.clang"
  },
  "schemaVersion": "3.4.7",
  "updatedAt": "2022-05-11T10:32:46.349Z",
  "networkType": "ethereum",
  "devdoc": {
    "kind": "dev",
    "methods": {
      "approve(address,uint256)": {
        "details": "See {IERC721-approve}."
      },
      "balanceOf(address)": {
        "details": "See {IERC721-balanceOf}."
      },
      "getApproved(uint256)": {
        "details": "See {IERC721-getApproved}."
      },
      "isApprovedForAll(address,address)": {
        "details": "See {IERC721-isApprovedForAll}."
      },
      "name()": {
        "details": "See {IERC721Metadata-name}."
      },
      "owner()": {
        "details": "Returns the address of the current owner."
      },
      "ownerOf(uint256)": {
        "details": "See {IERC721-ownerOf}."
      },
      "renounceOwnership()": {
        "details": "Leaves the contract without owner. It will not be possible to call `onlyOwner` functions anymore. Can only be called by the current owner. NOTE: Renouncing ownership will leave the contract without an owner, thereby removing any functionality that is only available to the owner."
      },
      "safeTransferFrom(address,address,uint256)": {
        "details": "See {IERC721-safeTransferFrom}."
      },
      "safeTransferFrom(address,address,uint256,bytes)": {
        "details": "See {IERC721-safeTransferFrom}."
      },
      "setApprovalForAll(address,bool)": {
        "details": "See {IERC721-setApprovalForAll}."
      },
      "supportsInterface(bytes4)": {
        "details": "See {IERC165-supportsInterface}."
      },
      "symbol()": {
        "details": "See {IERC721Metadata-symbol}."
      },
      "tokenURI(uint256)": {
        "details": "See {IERC721Metadata-tokenURI}."
      },
      "transferFrom(address,address,uint256)": {
        "details": "See {IERC721-transferFrom}."
      },
      "transferOwnership(address)": {
        "details": "Transfers ownership of the contract to a new account (`newOwner`). Can only be called by the current owner."
      }
    },
    "version": 1
  },
  "userdoc": {
    "kind": "user",
    "methods": {},
    "version": 1
  }
}