{
  "contractName": "NFT",
  "abi": [
    {
      "inputs": [
        {
          "internalType": "string",
          "name": "_initBaseURI",
          "type": "string"
        },
        {
          "internalType": "string",
          "name": "tokenName",
          "type": "string"
        },
        {
          "internalType": "string",
          "name": "tokenSymbol",
          "type": "string"
        },
        {
          "internalType": "uint96",
          "name": "commission",
          "type": "uint96"
        },
        {
          "internalType": "address",
          "name": "commissionReceiver",
          "type": "address"
        }
      ],
      "stateMutability": "nonpayable",
      "type": "constructor"
    },
    {
      "anonymous": false,
      "inputs": [
        {
          "indexed": true,
          "internalType": "address",
          "name": "owner",
          "type": "address"
        },
        {
          "indexed": true,
          "internalType": "address",
          "name": "approved",
          "type": "address"
        },
        {
          "indexed": true,
          "internalType": "uint256",
          "name": "tokenId",
          "type": "uint256"
        }
      ],
      "name": "Approval",
      "type": "event"
    },
    {
      "anonymous": false,
      "inputs": [
        {
          "indexed": true,
          "internalType": "address",
          "name": "owner",
          "type": "address"
        },
        {
          "indexed": true,
          "internalType": "address",
          "name": "operator",
          "type": "address"
        },
        {
          "indexed": false,
          "internalType": "bool",
          "name": "approved",
          "type": "bool"
        }
      ],
      "name": "ApprovalForAll",
      "type": "event"
    },
    {
      "anonymous": false,
      "inputs": [
        {
          "indexed": true,
          "internalType": "address",
          "name": "previousOwner",
          "type": "address"
        },
        {
          "indexed": true,
          "internalType": "address",
          "name": "newOwner",
          "type": "address"
        }
      ],
      "name": "OwnershipTransferred",
      "type": "event"
    },
    {
      "anonymous": false,
      "inputs": [
        {
          "indexed": true,
          "internalType": "address",
          "name": "from",
          "type": "address"
        },
        {
          "indexed": true,
          "internalType": "address",
          "name": "to",
          "type": "address"
        },
        {
          "indexed": true,
          "internalType": "uint256",
          "name": "tokenId",
          "type": "uint256"
        }
      ],
      "name": "Transfer",
      "type": "event"
    },
    {
      "inputs": [
        {
          "internalType": "address",
          "name": "to",
          "type": "address"
        },
        {
          "internalType": "uint256",
          "name": "tokenId",
          "type": "uint256"
        }
      ],
      "name": "approve",
      "outputs": [],
      "stateMutability": "nonpayable",
      "type": "function"
    },
    {
      "inputs": [
        {
          "internalType": "address",
          "name": "owner",
          "type": "address"
        }
      ],
      "name": "balanceOf",
      "outputs": [
        {
          "internalType": "uint256",
          "name": "",
          "type": "uint256"
        }
      ],
      "stateMutability": "view",
      "type": "function",
      "constant": true
    },
    {
      "inputs": [
        {
          "internalType": "uint256",
          "name": "tokenId",
          "type": "uint256"
        }
      ],
      "name": "getApproved",
      "outputs": [
        {
          "internalType": "address",
          "name": "",
          "type": "address"
        }
      ],
      "stateMutability": "view",
      "type": "function",
      "constant": true
    },
    {
      "inputs": [
        {
          "internalType": "address",
          "name": "owner",
          "type": "address"
        },
        {
          "internalType": "address",
          "name": "operator",
          "type": "address"
        }
      ],
      "name": "isApprovedForAll",
      "outputs": [
        {
          "internalType": "bool",
          "name": "",
          "type": "bool"
        }
      ],
      "stateMutability": "view",
      "type": "function",
      "constant": true
    },
    {
      "inputs": [],
      "name": "name",
      "outputs": [
        {
          "internalType": "string",
          "name": "",
          "type": "string"
        }
      ],
      "stateMutability": "view",
      "type": "function",
      "constant": true
    },
    {
      "inputs": [],
      "name": "owner",
      "outputs": [
        {
          "internalType": "address",
          "name": "",
          "type": "address"
        }
      ],
      "stateMutability": "view",
      "type": "function",
      "constant": true
    },
    {
      "inputs": [
        {
          "internalType": "uint256",
          "name": "tokenId",
          "type": "uint256"
        }
      ],
      "name": "ownerOf",
      "outputs": [
        {
          "internalType": "address",
          "name": "",
          "type": "address"
        }
      ],
      "stateMutability": "view",
      "type": "function",
      "constant": true
    },
    {
      "inputs": [],
      "name": "renounceOwnership",
      "outputs": [],
      "stateMutability": "nonpayable",
      "type": "function"
    },
    {
      "inputs": [
        {
          "internalType": "uint256",
          "name": "_tokenId",
          "type": "uint256"
        },
        {
          "internalType": "uint256",
          "name": "_salePrice",
          "type": "uint256"
        }
      ],
      "name": "royaltyInfo",
      "outputs": [
        {
          "internalType": "address",
          "name": "",
          "type": "address"
        },
        {
          "internalType": "uint256",
          "name": "",
          "type": "uint256"
        }
      ],
      "stateMutability": "view",
      "type": "function",
      "constant": true
    },
    {
      "inputs": [
        {
          "internalType": "address",
          "name": "from",
          "type": "address"
        },
        {
          "internalType": "address",
          "name": "to",
          "type": "address"
        },
        {
          "internalType": "uint256",
          "name": "tokenId",
          "type": "uint256"
        }
      ],
      "name": "safeTransferFrom",
      "outputs": [],
      "stateMutability": "nonpayable",
      "type": "function"
    },
    {
      "inputs": [
        {
          "internalType": "address",
          "name": "from",
          "type": "address"
        },
        {
          "internalType": "address",
          "name": "to",
          "type": "address"
        },
        {
          "internalType": "uint256",
          "name": "tokenId",
          "type": "uint256"
        },
        {
          "internalType": "bytes",
          "name": "_data",
          "type": "bytes"
        }
      ],
      "name": "safeTransferFrom",
      "outputs": [],
      "stateMutability": "nonpayable",
      "type": "function"
    },
    {
      "inputs": [
        {
          "internalType": "address",
          "name": "operator",
          "type": "address"
        },
        {
          "internalType": "bool",
          "name": "approved",
          "type": "bool"
        }
      ],
      "name": "setApprovalForAll",
      "outputs": [],
      "stateMutability": "nonpayable",
      "type": "function"
    },
    {
      "inputs": [],
      "name": "symbol",
      "outputs": [
        {
          "internalType": "string",
          "name": "",
          "type": "string"
        }
      ],
      "stateMutability": "view",
      "type": "function",
      "constant": true
    },
    {
      "inputs": [
        {
          "internalType": "uint256",
          "name": "tokenId",
          "type": "uint256"
        }
      ],
      "name": "tokenURI",
      "outputs": [
        {
          "internalType": "string",
          "name": "",
          "type": "string"
        }
      ],
      "stateMutability": "view",
      "type": "function",
      "constant": true
    },
    {
      "inputs": [
        {
          "internalType": "address",
          "name": "from",
          "type": "address"
        },
        {
          "internalType": "address",
          "name": "to",
          "type": "address"
        },
        {
          "internalType": "uint256",
          "name": "tokenId",
          "type": "uint256"
        }
      ],
      "name": "transferFrom",
      "outputs": [],
      "stateMutability": "nonpayable",
      "type": "function"
    },
    {
      "inputs": [
        {
          "internalType": "address",
          "name": "newOwner",
          "type": "address"
        }
      ],
      "name": "transferOwnership",
      "outputs": [],
      "stateMutability": "nonpayable",
      "type": "function"
    },
    {
      "inputs": [
        {
          "internalType": "string",
          "name": "_tokenURI",
          "type": "string"
        },
        {
          "internalType": "string",
          "name": "_setBaseURI",
          "type": "string"
        },
        {
          "internalType": "uint96",
          "name": "royaltyperct",
          "type": "uint96"
        },
        {
          "internalType": "address",
          "name": "royaltypay",
          "type": "address"
        }
      ],
      "name": "mint",
      "outputs": [
        {
          "internalType": "uint256",
          "name": "",
          "type": "uint256"
        }
      ],
      "stateMutability": "nonpayable",
      "type": "function"
    },
    {
      "inputs": [
        {
          "internalType": "uint256",
          "name": "tokenId",
          "type": "uint256"
        },
        {
          "internalType": "address",
          "name": "_receiver",
          "type": "address"
        },
        {
          "internalType": "uint96",
          "name": "_royaltyFee",
          "type": "uint96"
        }
      ],
      "name": "setRoyaltyInfo",
      "outputs": [],
      "stateMutability": "nonpayable",
      "type": "function"
    },
    {
      "inputs": [
        {
          "internalType": "uint256",
          "name": "tokenId",
          "type": "uint256"
        },
        {
          "internalType": "uint256",
          "name": "price",
          "type": "uint256"
        }
      ],
      "name": "setTokenForSale",
      "outputs": [],
      "stateMutability": "nonpayable",
      "type": "function"
    },
    {
      "inputs": [
        {
          "internalType": "uint256",
          "name": "tokenId",
          "type": "uint256"
        },
        {
          "internalType": "uint256",
          "name": "price",
          "type": "uint256"
        }
      ],
      "name": "changeTokenPrice",
      "outputs": [],
      "stateMutability": "nonpayable",
      "type": "function"
    },
    {
      "inputs": [
        {
          "internalType": "uint256",
          "name": "tokenId",
          "type": "uint256"
        }
      ],
      "name": "buyNFT",
      "outputs": [],
      "stateMutability": "payable",
      "type": "function",
      "payable": true
    },
    {
      "inputs": [
        {
          "internalType": "uint256",
          "name": "tokenId",
          "type": "uint256"
        }
      ],
      "name": "removeTokenFromSale",
      "outputs": [],
      "stateMutability": "nonpayable",
      "type": "function"
    },
    {
      "inputs": [
        {
          "internalType": "address",
          "name": "receiver",
          "type": "address"
        },
        {
          "internalType": "uint256",
          "name": "tokenId",
          "type": "uint256"
        }
      ],
      "name": "giftToken",
      "outputs": [],
      "stateMutability": "nonpayable",
      "type": "function"
    },
    {
      "inputs": [
        {
          "internalType": "uint256",
          "name": "tokenId",
          "type": "uint256"
        }
      ],
      "name": "isTokenForSale",
      "outputs": [
        {
          "internalType": "bool",
          "name": "",
          "type": "bool"
        }
      ],
      "stateMutability": "view",
      "type": "function",
      "constant": true
    },
    {
      "inputs": [
        {
          "internalType": "uint256",
          "name": "tokenId",
          "type": "uint256"
        }
      ],
      "name": "getTokenPrice",
      "outputs": [
        {
          "internalType": "uint256",
          "name": "",
          "type": "uint256"
        }
      ],
      "stateMutability": "view",
      "type": "function",
      "constant": true
    },
    {
      "inputs": [
        {
          "internalType": "bytes4",
          "name": "interfaceId",
          "type": "bytes4"
        }
      ],
      "name": "supportsInterface",
      "outputs": [
        {
          "internalType": "bool",
          "name": "",
          "type": "bool"
        }
      ],
      "stateMutability": "view",
      "type": "function",
      "constant": true
    }
  ],
  "bytecode": "0x60806040526040518060400160405280600581526020017f2e6a736f6e000000000000000000000000000000000000000000000000000000815250600d90805190602001906200005192919062000243565b503480156200005f57600080fd5b50604051620052a0380380620052a083398181016040528101906200008591906200053e565b8383620000a76200009b6200015b60201b60201c565b6200016360201b60201c565b8160019080519060200190620000bf92919062000243565b508060029080519060200190620000d892919062000243565b505050620000ec856200022760201b60201c565b606482620000fb919062000652565b6bffffffffffffffffffffffff16600a8190555080600b60006101000a81548173ffffffffffffffffffffffffffffffffffffffff021916908373ffffffffffffffffffffffffffffffffffffffff160217905550505050505062000703565b600033905090565b60008060009054906101000a900473ffffffffffffffffffffffffffffffffffffffff169050816000806101000a81548173ffffffffffffffffffffffffffffffffffffffff021916908373ffffffffffffffffffffffffffffffffffffffff1602179055508173ffffffffffffffffffffffffffffffffffffffff168173ffffffffffffffffffffffffffffffffffffffff167f8be0079c531659141344cd1fd0a4f28419497f9722a3daafe3b4186f6b6457e060405160405180910390a35050565b80600c90805190602001906200023f92919062000243565b5050565b8280546200025190620006ce565b90600052602060002090601f016020900481019282620002755760008555620002c1565b82601f106200029057805160ff1916838001178555620002c1565b82800160010185558215620002c1579182015b82811115620002c0578251825591602001919060010190620002a3565b5b509050620002d09190620002d4565b5090565b5b80821115620002ef576000816000905550600101620002d5565b5090565b6000604051905090565b600080fd5b600080fd5b600080fd5b600080fd5b6000601f19601f8301169050919050565b7f4e487b7100000000000000000000000000000000000000000000000000000000600052604160045260246000fd5b6200035c8262000311565b810181811067ffffffffffffffff821117156200037e576200037d62000322565b5b80604052505050565b600062000393620002f3565b9050620003a1828262000351565b919050565b600067ffffffffffffffff821115620003c457620003c362000322565b5b620003cf8262000311565b9050602081019050919050565b60005b83811015620003fc578082015181840152602081019050620003df565b838111156200040c576000848401525b50505050565b6000620004296200042384620003a6565b62000387565b9050828152602081018484840111156200044857620004476200030c565b5b62000455848285620003dc565b509392505050565b600082601f83011262000475576200047462000307565b5b81516200048784826020860162000412565b91505092915050565b60006bffffffffffffffffffffffff82169050919050565b620004b38162000490565b8114620004bf57600080fd5b50565b600081519050620004d381620004a8565b92915050565b600073ffffffffffffffffffffffffffffffffffffffff82169050919050565b60006200050682620004d9565b9050919050565b6200051881620004f9565b81146200052457600080fd5b50565b60008151905062000538816200050d565b92915050565b600080600080600060a086880312156200055d576200055c620002fd565b5b600086015167ffffffffffffffff8111156200057e576200057d62000302565b5b6200058c888289016200045d565b955050602086015167ffffffffffffffff811115620005b057620005af62000302565b5b620005be888289016200045d565b945050604086015167ffffffffffffffff811115620005e257620005e162000302565b5b620005f0888289016200045d565b93505060606200060388828901620004c2565b9250506080620006168882890162000527565b9150509295509295909350565b7f4e487b7100000000000000000000000000000000000000000000000000000000600052601160045260246000fd5b60006200065f8262000490565b91506200066c8362000490565b9250816bffffffffffffffffffffffff048311821515161562000694576200069362000623565b5b828202905092915050565b7f4e487b7100000000000000000000000000000000000000000000000000000000600052602260045260246000fd5b60006002820490506001821680620006e757607f821691505b602082108103620006fd57620006fc6200069f565b5b50919050565b614b8d80620007136000396000f3fe6080604052600436106101815760003560e01c806370a08231116100d1578063c457fb371161008a578063e8cdea1111610064578063e8cdea1114610594578063e985e9c5146105bd578063f2fde38b146105fa578063f30024631461062357610181565b8063c457fb37146104f1578063c87b56dd1461052e578063cb233ce21461056b57610181565b806370a08231146103f5578063715018a6146104325780638da5cb5b1461044957806395d89b4114610474578063a22cb4651461049f578063b88d4fde146104c857610181565b806323b872dd1161013e5780634fed1c94116101185780634fed1c941461033657806351ed82881461037357806362e8e8ac1461038f5780636352211e146103b857610181565b806323b872dd146102a65780632a55205a146102cf57806342842e0e1461030d57610181565b806301ffc9a71461018657806306fdde03146101c3578063081812fc146101ee578063095ea7b31461022b5780631495fa99146102545780631f24285d1461027d575b600080fd5b34801561019257600080fd5b506101ad60048036038101906101a89190612d99565b610660565b6040516101ba9190612de1565b60405180910390f35b3480156101cf57600080fd5b506101d8610672565b6040516101e59190612e95565b60405180910390f35b3480156101fa57600080fd5b5061021560048036038101906102109190612eed565b610704565b6040516102229190612f5b565b60405180910390f35b34801561023757600080fd5b50610252600480360381019061024d9190612fa2565b610789565b005b34801561026057600080fd5b5061027b60048036038101906102769190613026565b6108a0565b005b34801561028957600080fd5b506102a4600480360381019061029f9190612fa2565b6108b0565b005b3480156102b257600080fd5b506102cd60048036038101906102c89190613079565b6109b6565b005b3480156102db57600080fd5b506102f660048036038101906102f191906130cc565b610a16565b60405161030492919061311b565b60405180910390f35b34801561031957600080fd5b50610334600480360381019061032f9190613079565b610c00565b005b34801561034257600080fd5b5061035d60048036038101906103589190612eed565b610c20565b60405161036a9190612de1565b60405180910390f35b61038d60048036038101906103889190612eed565b610c4a565b005b34801561039b57600080fd5b506103b660048036038101906103b191906130cc565b610f1c565b005b3480156103c457600080fd5b506103df60048036038101906103da9190612eed565b61105d565b6040516103ec9190612f5b565b60405180910390f35b34801561040157600080fd5b5061041c60048036038101906104179190613144565b61110e565b6040516104299190613171565b60405180910390f35b34801561043e57600080fd5b506104476111c5565b005b34801561045557600080fd5b5061045e61124d565b60405161046b9190612f5b565b60405180910390f35b34801561048057600080fd5b50610489611276565b6040516104969190612e95565b60405180910390f35b3480156104ab57600080fd5b506104c660048036038101906104c191906131b8565b611308565b005b3480156104d457600080fd5b506104ef60048036038101906104ea919061332d565b61131e565b005b3480156104fd57600080fd5b5061051860048036038101906105139190612eed565b611380565b6040516105259190613171565b60405180910390f35b34801561053a57600080fd5b5061055560048036038101906105509190612eed565b61139d565b6040516105629190612e95565b60405180910390f35b34801561057757600080fd5b50610592600480360381019061058d91906130cc565b6114ee565b005b3480156105a057600080fd5b506105bb60048036038101906105b69190612eed565b6115fb565b005b3480156105c957600080fd5b506105e460048036038101906105df91906133b0565b61174f565b6040516105f19190612de1565b60405180910390f35b34801561060657600080fd5b50610621600480360381019061061c9190613144565b6117e3565b005b34801561062f57600080fd5b5061064a60048036038101906106459190613491565b6118da565b6040516106579190613171565b60405180910390f35b600061066b826119db565b9050919050565b6060600180546106819061355f565b80601f01602080910402602001604051908101604052809291908181526020018280546106ad9061355f565b80156106fa5780601f106106cf576101008083540402835291602001916106fa565b820191906000526020600020905b8154815290600101906020018083116106dd57829003601f168201915b5050505050905090565b600061070f82611a55565b61074e576040517f08c379a000000000000000000000000000000000000000000000000000000000815260040161074590613602565b60405180910390fd5b6005600083815260200190815260200160002060009054906101000a900473ffffffffffffffffffffffffffffffffffffffff169050919050565b60006107948261105d565b90508073ffffffffffffffffffffffffffffffffffffffff168373ffffffffffffffffffffffffffffffffffffffff1603610804576040517f08c379a00000000000000000000000000000000000000000000000000000000081526004016107fb90613694565b60405180910390fd5b8073ffffffffffffffffffffffffffffffffffffffff16610823611ac1565b73ffffffffffffffffffffffffffffffffffffffff16148061085257506108518161084c611ac1565b61174f565b5b610891576040517f08c379a000000000000000000000000000000000000000000000000000000000815260040161088890613726565b60405180910390fd5b61089b8383611ac9565b505050565b6108ab838383611b82565b505050565b60006108bb8261105d565b90506108c682611a55565b610905576040517f08c379a00000000000000000000000000000000000000000000000000000000081526004016108fc90613792565b60405180910390fd5b8073ffffffffffffffffffffffffffffffffffffffff16610924611ac1565b73ffffffffffffffffffffffffffffffffffffffff161461097a576040517f08c379a0000000000000000000000000000000000000000000000000000000008152600401610971906137fe565b60405180910390fd5b610985818484611d29565b6000600f600084815260200190815260200160002060006101000a81548160ff021916908315150217905550505050565b6109c76109c1611ac1565b82611f8f565b610a06576040517f08c379a00000000000000000000000000000000000000000000000000000000081526004016109fd90613890565b60405180910390fd5b610a11838383611d29565b505050565b6000806000600960008681526020019081526020016000206040518060400160405290816000820160009054906101000a900473ffffffffffffffffffffffffffffffffffffffff1673ffffffffffffffffffffffffffffffffffffffff1673ffffffffffffffffffffffffffffffffffffffff1681526020016000820160149054906101000a90046bffffffffffffffffffffffff166bffffffffffffffffffffffff166bffffffffffffffffffffffff16815250509050600073ffffffffffffffffffffffffffffffffffffffff16816000015173ffffffffffffffffffffffffffffffffffffffff1603610bab5760086040518060400160405290816000820160009054906101000a900473ffffffffffffffffffffffffffffffffffffffff1673ffffffffffffffffffffffffffffffffffffffff1673ffffffffffffffffffffffffffffffffffffffff1681526020016000820160149054906101000a90046bffffffffffffffffffffffff166bffffffffffffffffffffffff166bffffffffffffffffffffffff168152505090505b6000610bb561206d565b6bffffffffffffffffffffffff1682602001516bffffffffffffffffffffffff1686610be191906138df565b610beb9190613968565b90508160000151819350935050509250929050565b610c1b8383836040518060200160405280600081525061131e565b505050565b6000600f600083815260200190815260200160002060009054906101000a900460ff169050919050565b600f600082815260200190815260200160002060009054906101000a900460ff16610caa576040517f08c379a0000000000000000000000000000000000000000000000000000000008152600401610ca1906139e5565b60405180910390fd5b6000610cb58261105d565b9050600073ffffffffffffffffffffffffffffffffffffffff16610cd7611ac1565b73ffffffffffffffffffffffffffffffffffffffff1603610d2d576040517f08c379a0000000000000000000000000000000000000000000000000000000008152600401610d2490613a51565b60405180910390fd5b8073ffffffffffffffffffffffffffffffffffffffff16610d4c611ac1565b73ffffffffffffffffffffffffffffffffffffffff1603610da2576040517f08c379a0000000000000000000000000000000000000000000000000000000008152600401610d9990613abd565b60405180910390fd5b60003490506000610db284611380565b9050600080828411610df9576040517f08c379a0000000000000000000000000000000000000000000000000000000008152600401610df090613b29565b60405180910390fd5b8473ffffffffffffffffffffffffffffffffffffffff16600e60009054906101000a900473ffffffffffffffffffffffffffffffffffffffff1673ffffffffffffffffffffffffffffffffffffffff1614610eb257610e588684610a16565b80935081925050506000821115610eb1578073ffffffffffffffffffffffffffffffffffffffff166108fc839081150290604051600060405180830381858888f19350505050158015610eaf573d6000803e3d6000fd5b505b5b600060405180608001604052808881526020018773ffffffffffffffffffffffffffffffffffffffff168152602001610ee9611ac1565b73ffffffffffffffffffffffffffffffffffffffff168152602001858152509050610f1381612077565b50505050505050565b610f2582611a55565b610f64576040517f08c379a0000000000000000000000000000000000000000000000000000000008152600401610f5b90613b95565b60405180910390fd5b600f600083815260200190815260200160002060009054906101000a900460ff16610fc4576040517f08c379a0000000000000000000000000000000000000000000000000000000008152600401610fbb90613c27565b60405180910390fd5b610fcc611ac1565b73ffffffffffffffffffffffffffffffffffffffff16610feb8361105d565b73ffffffffffffffffffffffffffffffffffffffff1614611041576040517f08c379a000000000000000000000000000000000000000000000000000000000815260040161103890613c93565b60405180910390fd5b8060106000848152602001908152602001600020819055505050565b6000806003600084815260200190815260200160002060009054906101000a900473ffffffffffffffffffffffffffffffffffffffff169050600073ffffffffffffffffffffffffffffffffffffffff168173ffffffffffffffffffffffffffffffffffffffff1603611105576040517f08c379a00000000000000000000000000000000000000000000000000000000081526004016110fc90613d25565b60405180910390fd5b80915050919050565b60008073ffffffffffffffffffffffffffffffffffffffff168273ffffffffffffffffffffffffffffffffffffffff160361117e576040517f08c379a000000000000000000000000000000000000000000000000000000000815260040161117590613db7565b60405180910390fd5b600460008373ffffffffffffffffffffffffffffffffffffffff1673ffffffffffffffffffffffffffffffffffffffff168152602001908152602001600020549050919050565b6111cd611ac1565b73ffffffffffffffffffffffffffffffffffffffff166111eb61124d565b73ffffffffffffffffffffffffffffffffffffffff1614611241576040517f08c379a000000000000000000000000000000000000000000000000000000000815260040161123890613e23565b60405180910390fd5b61124b60006121c4565b565b60008060009054906101000a900473ffffffffffffffffffffffffffffffffffffffff16905090565b6060600280546112859061355f565b80601f01602080910402602001604051908101604052809291908181526020018280546112b19061355f565b80156112fe5780601f106112d3576101008083540402835291602001916112fe565b820191906000526020600020905b8154815290600101906020018083116112e157829003601f168201915b5050505050905090565b61131a611313611ac1565b8383612288565b5050565b61132f611329611ac1565b83611f8f565b61136e576040517f08c379a000000000000000000000000000000000000000000000000000000000815260040161136590613890565b60405180910390fd5b61137a848484846123f4565b50505050565b600060106000838152602001908152602001600020549050919050565b60606113a882611a55565b6113e7576040517f08c379a00000000000000000000000000000000000000000000000000000000081526004016113de90613eb5565b60405180910390fd5b60006007600084815260200190815260200160002080546114079061355f565b80601f01602080910402602001604051908101604052809291908181526020018280546114339061355f565b80156114805780601f1061145557610100808354040283529160200191611480565b820191906000526020600020905b81548152906001019060200180831161146357829003601f168201915b505050505090506000611491612450565b905060008151036114a65781925050506114e9565b6000825111156114db5780826040516020016114c3929190613f11565b604051602081830303815290604052925050506114e9565b6114e4846124e2565b925050505b919050565b6114f782611a55565b611536576040517f08c379a000000000000000000000000000000000000000000000000000000000815260040161152d90613b95565b60405180910390fd5b61153e611ac1565b73ffffffffffffffffffffffffffffffffffffffff1661155d8361105d565b73ffffffffffffffffffffffffffffffffffffffff16146115b3576040517f08c379a00000000000000000000000000000000000000000000000000000000081526004016115aa90613fa7565b60405180910390fd5b6001600f600084815260200190815260200160002060006101000a81548160ff0219169083151502179055508060106000848152602001908152602001600020819055505050565b61160481611a55565b611643576040517f08c379a000000000000000000000000000000000000000000000000000000000815260040161163a90614013565b60405180910390fd5b600f600082815260200190815260200160002060009054906101000a900460ff166116a3576040517f08c379a000000000000000000000000000000000000000000000000000000000815260040161169a906140a5565b60405180910390fd5b6116ab611ac1565b73ffffffffffffffffffffffffffffffffffffffff166116ca8261105d565b73ffffffffffffffffffffffffffffffffffffffff1614611720576040517f08c379a000000000000000000000000000000000000000000000000000000000815260040161171790614111565b60405180910390fd5b6000600f600083815260200190815260200160002060006101000a81548160ff02191690831515021790555050565b6000600660008473ffffffffffffffffffffffffffffffffffffffff1673ffffffffffffffffffffffffffffffffffffffff16815260200190815260200160002060008373ffffffffffffffffffffffffffffffffffffffff1673ffffffffffffffffffffffffffffffffffffffff16815260200190815260200160002060009054906101000a900460ff16905092915050565b6117eb611ac1565b73ffffffffffffffffffffffffffffffffffffffff1661180961124d565b73ffffffffffffffffffffffffffffffffffffffff161461185f576040517f08c379a000000000000000000000000000000000000000000000000000000000815260040161185690613e23565b60405180910390fd5b600073ffffffffffffffffffffffffffffffffffffffff168173ffffffffffffffffffffffffffffffffffffffff16036118ce576040517f08c379a00000000000000000000000000000000000000000000000000000000081526004016118c5906141a3565b60405180910390fd5b6118d7816121c4565b50565b60006118e66011612589565b6064836118f391906141c3565b92506000611901601161259f565b9050601381908060018154018082558091505060019003906000526020600020016000909190919091505561193d611937611ac1565b826125ad565b6000600f600083815260200190815260200160002060006101000a81548160ff02191690831515021790555061197285612786565b61197c81876127a0565b6119878184866108a0565b61198f611ac1565b600e60006101000a81548173ffffffffffffffffffffffffffffffffffffffff021916908373ffffffffffffffffffffffffffffffffffffffff16021790555080915050949350505050565b60007f2a55205a000000000000000000000000000000000000000000000000000000007bffffffffffffffffffffffffffffffffffffffffffffffffffffffff1916827bffffffffffffffffffffffffffffffffffffffffffffffffffffffff19161480611a4e5750611a4d82612814565b5b9050919050565b60008073ffffffffffffffffffffffffffffffffffffffff166003600084815260200190815260200160002060009054906101000a900473ffffffffffffffffffffffffffffffffffffffff1673ffffffffffffffffffffffffffffffffffffffff1614159050919050565b600033905090565b816005600083815260200190815260200160002060006101000a81548173ffffffffffffffffffffffffffffffffffffffff021916908373ffffffffffffffffffffffffffffffffffffffff160217905550808273ffffffffffffffffffffffffffffffffffffffff16611b3c8361105d565b73ffffffffffffffffffffffffffffffffffffffff167f8c5be1e5ebec7d5bd14f71427d1e84f3dd0314c0f7b2291e5b200ac8c7c3b92560405160405180910390a45050565b611b8a61206d565b6bffffffffffffffffffffffff16816bffffffffffffffffffffffff161115611be8576040517f08c379a0000000000000000000000000000000000000000000000000000000008152600401611bdf9061427b565b60405180910390fd5b600073ffffffffffffffffffffffffffffffffffffffff168273ffffffffffffffffffffffffffffffffffffffff1603611c57576040517f08c379a0000000000000000000000000000000000000000000000000000000008152600401611c4e906142e7565b60405180910390fd5b60405180604001604052808373ffffffffffffffffffffffffffffffffffffffff168152602001826bffffffffffffffffffffffff168152506009600085815260200190815260200160002060008201518160000160006101000a81548173ffffffffffffffffffffffffffffffffffffffff021916908373ffffffffffffffffffffffffffffffffffffffff16021790555060208201518160000160146101000a8154816bffffffffffffffffffffffff02191690836bffffffffffffffffffffffff160217905550905050505050565b8273ffffffffffffffffffffffffffffffffffffffff16611d498261105d565b73ffffffffffffffffffffffffffffffffffffffff1614611d9f576040517f08c379a0000000000000000000000000000000000000000000000000000000008152600401611d9690614379565b60405180910390fd5b600073ffffffffffffffffffffffffffffffffffffffff168273ffffffffffffffffffffffffffffffffffffffff1603611e0e576040517f08c379a0000000000000000000000000000000000000000000000000000000008152600401611e059061440b565b60405180910390fd5b611e198383836128f6565b611e24600082611ac9565b6001600460008573ffffffffffffffffffffffffffffffffffffffff1673ffffffffffffffffffffffffffffffffffffffff1681526020019081526020016000206000828254611e74919061442b565b925050819055506001600460008473ffffffffffffffffffffffffffffffffffffffff1673ffffffffffffffffffffffffffffffffffffffff1681526020019081526020016000206000828254611ecb919061445f565b92505081905550816003600083815260200190815260200160002060006101000a81548173ffffffffffffffffffffffffffffffffffffffff021916908373ffffffffffffffffffffffffffffffffffffffff160217905550808273ffffffffffffffffffffffffffffffffffffffff168473ffffffffffffffffffffffffffffffffffffffff167fddf252ad1be2c89b69c2b068fc378daa952ba7f163c4a11628f55a4df523b3ef60405160405180910390a4611f8a8383836128fb565b505050565b6000611f9a82611a55565b611fd9576040517f08c379a0000000000000000000000000000000000000000000000000000000008152600401611fd090614527565b60405180910390fd5b6000611fe48361105d565b90508073ffffffffffffffffffffffffffffffffffffffff168473ffffffffffffffffffffffffffffffffffffffff1614806120265750612025818561174f565b5b8061206457508373ffffffffffffffffffffffffffffffffffffffff1661204c84610704565b73ffffffffffffffffffffffffffffffffffffffff16145b91505092915050565b6000612710905090565b6000816060015190506000600a54111561212e576000600a5461271084606001516120a29190614551565b6120ac91906145bb565b9050600b60009054906101000a900473ffffffffffffffffffffffffffffffffffffffff1673ffffffffffffffffffffffffffffffffffffffff166108fc829081150290604051600060405180830381858888f19350505050158015612116573d6000803e3d6000fd5b5061212a818361290090919063ffffffff16565b9150505b816020015173ffffffffffffffffffffffffffffffffffffffff166108fc829081150290604051600060405180830381858888f19350505050158015612178573d6000803e3d6000fd5b50612190826020015183604001518460000151611d29565b6000600f60008460000151815260200190815260200160002060006101000a81548160ff0219169083151502179055505050565b60008060009054906101000a900473ffffffffffffffffffffffffffffffffffffffff169050816000806101000a81548173ffffffffffffffffffffffffffffffffffffffff021916908373ffffffffffffffffffffffffffffffffffffffff1602179055508173ffffffffffffffffffffffffffffffffffffffff168173ffffffffffffffffffffffffffffffffffffffff167f8be0079c531659141344cd1fd0a4f28419497f9722a3daafe3b4186f6b6457e060405160405180910390a35050565b8173ffffffffffffffffffffffffffffffffffffffff168373ffffffffffffffffffffffffffffffffffffffff16036122f6576040517f08c379a00000000000000000000000000000000000000000000000000000000081526004016122ed9061471e565b60405180910390fd5b80600660008573ffffffffffffffffffffffffffffffffffffffff1673ffffffffffffffffffffffffffffffffffffffff16815260200190815260200160002060008473ffffffffffffffffffffffffffffffffffffffff1673ffffffffffffffffffffffffffffffffffffffff16815260200190815260200160002060006101000a81548160ff0219169083151502179055508173ffffffffffffffffffffffffffffffffffffffff168373ffffffffffffffffffffffffffffffffffffffff167f17307eab39ab6107e8899845ad3d59bd9653f200f220920489ca2b5937696c31836040516123e79190612de1565b60405180910390a3505050565b6123ff848484611d29565b61240b84848484612916565b61244a576040517f08c379a0000000000000000000000000000000000000000000000000000000008152600401612441906147b0565b60405180910390fd5b50505050565b6060600c805461245f9061355f565b80601f016020809104026020016040519081016040528092919081815260200182805461248b9061355f565b80156124d85780601f106124ad576101008083540402835291602001916124d8565b820191906000526020600020905b8154815290600101906020018083116124bb57829003601f168201915b5050505050905090565b60606124ed82611a55565b61252c576040517f08c379a000000000000000000000000000000000000000000000000000000000815260040161252390614842565b60405180910390fd5b6000612536612450565b905060008151116125565760405180602001604052806000815250612581565b8061256084612a9d565b604051602001612571929190613f11565b6040516020818303038152906040525b915050919050565b6001816000016000828254019250508190555050565b600081600001549050919050565b600073ffffffffffffffffffffffffffffffffffffffff168273ffffffffffffffffffffffffffffffffffffffff160361261c576040517f08c379a0000000000000000000000000000000000000000000000000000000008152600401612613906148ae565b60405180910390fd5b61262581611a55565b15612665576040517f08c379a000000000000000000000000000000000000000000000000000000000815260040161265c9061491a565b60405180910390fd5b612671600083836128f6565b6001600460008473ffffffffffffffffffffffffffffffffffffffff1673ffffffffffffffffffffffffffffffffffffffff16815260200190815260200160002060008282546126c1919061445f565b92505081905550816003600083815260200190815260200160002060006101000a81548173ffffffffffffffffffffffffffffffffffffffff021916908373ffffffffffffffffffffffffffffffffffffffff160217905550808273ffffffffffffffffffffffffffffffffffffffff16600073ffffffffffffffffffffffffffffffffffffffff167fddf252ad1be2c89b69c2b068fc378daa952ba7f163c4a11628f55a4df523b3ef60405160405180910390a4612782600083836128fb565b5050565b80600c908051906020019061279c929190612c8a565b5050565b6127a982611a55565b6127e8576040517f08c379a00000000000000000000000000000000000000000000000000000000081526004016127df906149ac565b60405180910390fd5b8060076000848152602001908152602001600020908051906020019061280f929190612c8a565b505050565b60007f80ac58cd000000000000000000000000000000000000000000000000000000007bffffffffffffffffffffffffffffffffffffffffffffffffffffffff1916827bffffffffffffffffffffffffffffffffffffffffffffffffffffffff191614806128df57507f5b5e139f000000000000000000000000000000000000000000000000000000007bffffffffffffffffffffffffffffffffffffffffffffffffffffffff1916827bffffffffffffffffffffffffffffffffffffffffffffffffffffffff1916145b806128ef57506128ee82612bfd565b5b9050919050565b505050565b505050565b6000818361290e919061442b565b905092915050565b60006129378473ffffffffffffffffffffffffffffffffffffffff16612c67565b15612a90578373ffffffffffffffffffffffffffffffffffffffff1663150b7a02612960611ac1565b8786866040518563ffffffff1660e01b81526004016129829493929190614a21565b6020604051808303816000875af19250505080156129be57506040513d601f19601f820116820180604052508101906129bb9190614a82565b60015b612a40573d80600081146129ee576040519150601f19603f3d011682016040523d82523d6000602084013e6129f3565b606091505b506000815103612a38576040517f08c379a0000000000000000000000000000000000000000000000000000000008152600401612a2f906147b0565b60405180910390fd5b805181602001fd5b63150b7a0260e01b7bffffffffffffffffffffffffffffffffffffffffffffffffffffffff1916817bffffffffffffffffffffffffffffffffffffffffffffffffffffffff191614915050612a95565b600190505b949350505050565b606060008203612ae4576040518060400160405280600181526020017f30000000000000000000000000000000000000000000000000000000000000008152509050612bf8565b600082905060005b60008214612b16578080612aff90614aaf565b915050600a82612b0f9190613968565b9150612aec565b60008167ffffffffffffffff811115612b3257612b31613202565b5b6040519080825280601f01601f191660200182016040528015612b645781602001600182028036833780820191505090505b5090505b60008514612bf157600182612b7d919061442b565b9150600a85612b8c9190614af7565b6030612b98919061445f565b60f81b818381518110612bae57612bad614b28565b5b60200101907effffffffffffffffffffffffffffffffffffffffffffffffffffffffffffff1916908160001a905350600a85612bea9190613968565b9450612b68565b8093505050505b919050565b60007f01ffc9a7000000000000000000000000000000000000000000000000000000007bffffffffffffffffffffffffffffffffffffffffffffffffffffffff1916827bffffffffffffffffffffffffffffffffffffffffffffffffffffffff1916149050919050565b6000808273ffffffffffffffffffffffffffffffffffffffff163b119050919050565b828054612c969061355f565b90600052602060002090601f016020900481019282612cb85760008555612cff565b82601f10612cd157805160ff1916838001178555612cff565b82800160010185558215612cff579182015b82811115612cfe578251825591602001919060010190612ce3565b5b509050612d0c9190612d10565b5090565b5b80821115612d29576000816000905550600101612d11565b5090565b6000604051905090565b600080fd5b600080fd5b60007fffffffff0000000000000000000000000000000000000000000000000000000082169050919050565b612d7681612d41565b8114612d8157600080fd5b50565b600081359050612d9381612d6d565b92915050565b600060208284031215612daf57612dae612d37565b5b6000612dbd84828501612d84565b91505092915050565b60008115159050919050565b612ddb81612dc6565b82525050565b6000602082019050612df66000830184612dd2565b92915050565b600081519050919050565b600082825260208201905092915050565b60005b83811015612e36578082015181840152602081019050612e1b565b83811115612e45576000848401525b50505050565b6000601f19601f8301169050919050565b6000612e6782612dfc565b612e718185612e07565b9350612e81818560208601612e18565b612e8a81612e4b565b840191505092915050565b60006020820190508181036000830152612eaf8184612e5c565b905092915050565b6000819050919050565b612eca81612eb7565b8114612ed557600080fd5b50565b600081359050612ee781612ec1565b92915050565b600060208284031215612f0357612f02612d37565b5b6000612f1184828501612ed8565b91505092915050565b600073ffffffffffffffffffffffffffffffffffffffff82169050919050565b6000612f4582612f1a565b9050919050565b612f5581612f3a565b82525050565b6000602082019050612f706000830184612f4c565b92915050565b612f7f81612f3a565b8114612f8a57600080fd5b50565b600081359050612f9c81612f76565b92915050565b60008060408385031215612fb957612fb8612d37565b5b6000612fc785828601612f8d565b9250506020612fd885828601612ed8565b9150509250929050565b60006bffffffffffffffffffffffff82169050919050565b61300381612fe2565b811461300e57600080fd5b50565b60008135905061302081612ffa565b92915050565b60008060006060848603121561303f5761303e612d37565b5b600061304d86828701612ed8565b935050602061305e86828701612f8d565b925050604061306f86828701613011565b9150509250925092565b60008060006060848603121561309257613091612d37565b5b60006130a086828701612f8d565b93505060206130b186828701612f8d565b92505060406130c286828701612ed8565b9150509250925092565b600080604083850312156130e3576130e2612d37565b5b60006130f185828601612ed8565b925050602061310285828601612ed8565b9150509250929050565b61311581612eb7565b82525050565b60006040820190506131306000830185612f4c565b61313d602083018461310c565b9392505050565b60006020828403121561315a57613159612d37565b5b600061316884828501612f8d565b91505092915050565b6000602082019050613186600083018461310c565b92915050565b61319581612dc6565b81146131a057600080fd5b50565b6000813590506131b28161318c565b92915050565b600080604083850312156131cf576131ce612d37565b5b60006131dd85828601612f8d565b92505060206131ee858286016131a3565b9150509250929050565b600080fd5b600080fd5b7f4e487b7100000000000000000000000000000000000000000000000000000000600052604160045260246000fd5b61323a82612e4b565b810181811067ffffffffffffffff8211171561325957613258613202565b5b80604052505050565b600061326c612d2d565b90506132788282613231565b919050565b600067ffffffffffffffff82111561329857613297613202565b5b6132a182612e4b565b9050602081019050919050565b82818337600083830152505050565b60006132d06132cb8461327d565b613262565b9050828152602081018484840111156132ec576132eb6131fd565b5b6132f78482856132ae565b509392505050565b600082601f830112613314576133136131f8565b5b81356133248482602086016132bd565b91505092915050565b6000806000806080858703121561334757613346612d37565b5b600061335587828801612f8d565b945050602061336687828801612f8d565b935050604061337787828801612ed8565b925050606085013567ffffffffffffffff81111561339857613397612d3c565b5b6133a4878288016132ff565b91505092959194509250565b600080604083850312156133c7576133c6612d37565b5b60006133d585828601612f8d565b92505060206133e685828601612f8d565b9150509250929050565b600067ffffffffffffffff82111561340b5761340a613202565b5b61341482612e4b565b9050602081019050919050565b600061343461342f846133f0565b613262565b9050828152602081018484840111156134505761344f6131fd565b5b61345b8482856132ae565b509392505050565b600082601f830112613478576134776131f8565b5b8135613488848260208601613421565b91505092915050565b600080600080608085870312156134ab576134aa612d37565b5b600085013567ffffffffffffffff8111156134c9576134c8612d3c565b5b6134d587828801613463565b945050602085013567ffffffffffffffff8111156134f6576134f5612d3c565b5b61350287828801613463565b935050604061351387828801613011565b925050606061352487828801612f8d565b91505092959194509250565b7f4e487b7100000000000000000000000000000000000000000000000000000000600052602260045260246000fd5b6000600282049050600182168061357757607f821691505b60208210810361358a57613589613530565b5b50919050565b7f4552433732313a20617070726f76656420717565727920666f72206e6f6e657860008201527f697374656e7420746f6b656e0000000000000000000000000000000000000000602082015250565b60006135ec602c83612e07565b91506135f782613590565b604082019050919050565b6000602082019050818103600083015261361b816135df565b9050919050565b7f4552433732313a20617070726f76616c20746f2063757272656e74206f776e6560008201527f7200000000000000000000000000000000000000000000000000000000000000602082015250565b600061367e602183612e07565b915061368982613622565b604082019050919050565b600060208201905081810360008301526136ad81613671565b9050919050565b7f4552433732313a20617070726f76652063616c6c6572206973206e6f74206f7760008201527f6e6572206e6f7220617070726f76656420666f7220616c6c0000000000000000602082015250565b6000613710603883612e07565b915061371b826136b4565b604082019050919050565b6000602082019050818103600083015261373f81613703565b9050919050565b7f7265717565737420666f72206e6f6e206578697374656e7420746f6b656e0000600082015250565b600061377c601e83612e07565b915061378782613746565b602082019050919050565b600060208201905081810360008301526137ab8161376f565b9050919050565b7f4f6e6c79206f776e65722063616e206769667400000000000000000000000000600082015250565b60006137e8601383612e07565b91506137f3826137b2565b602082019050919050565b60006020820190508181036000830152613817816137db565b9050919050565b7f4552433732313a207472616e736665722063616c6c6572206973206e6f74206f60008201527f776e6572206e6f7220617070726f766564000000000000000000000000000000602082015250565b600061387a603183612e07565b91506138858261381e565b604082019050919050565b600060208201905081810360008301526138a98161386d565b9050919050565b7f4e487b7100000000000000000000000000000000000000000000000000000000600052601160045260246000fd5b60006138ea82612eb7565b91506138f583612eb7565b9250817fffffffffffffffffffffffffffffffffffffffffffffffffffffffffffffffff048311821515161561392e5761392d6138b0565b5b828202905092915050565b7f4e487b7100000000000000000000000000000000000000000000000000000000600052601260045260246000fd5b600061397382612eb7565b915061397e83612eb7565b92508261398e5761398d613939565b5b828204905092915050565b7f546f6b656e2069732063757272656e746c79206e6f7420666f722073616c6521600082015250565b60006139cf602083612e07565b91506139da82613999565b602082019050919050565b600060208201905081810360008301526139fe816139c2565b9050919050565b7f427579657220616464726573732063616e6e6f74206265207a65726f00000000600082015250565b6000613a3b601c83612e07565b9150613a4682613a05565b602082019050919050565b60006020820190508181036000830152613a6a81613a2e565b9050919050565b7f43616e6e6f7420627579206f776e6564204e4654000000000000000000000000600082015250565b6000613aa7601483612e07565b9150613ab282613a71565b602082019050919050565b60006020820190508181036000830152613ad681613a9a565b9050919050565b7f596f7520646f6e74206861766520656e6f756768206361736800000000000000600082015250565b6000613b13601983612e07565b9150613b1e82613add565b602082019050919050565b60006020820190508181036000830152613b4281613b06565b9050919050565b7f546f6b656e20646f6573206e6f74206578697374210000000000000000000000600082015250565b6000613b7f601583612e07565b9150613b8a82613b49565b602082019050919050565b60006020820190508181036000830152613bae81613b72565b9050919050565b7f546f6b656e206973206e6f7420666f722073616c652c2073657420697420736160008201527f6c65206669727374210000000000000000000000000000000000000000000000602082015250565b6000613c11602983612e07565b9150613c1c82613bb5565b604082019050919050565b60006020820190508181036000830152613c4081613c04565b9050919050565b7f4f6e6c79206f776e65722063616e20736574207468652076616c756521000000600082015250565b6000613c7d601d83612e07565b9150613c8882613c47565b602082019050919050565b60006020820190508181036000830152613cac81613c70565b9050919050565b7f4552433732313a206f776e657220717565727920666f72206e6f6e657869737460008201527f656e7420746f6b656e0000000000000000000000000000000000000000000000602082015250565b6000613d0f602983612e07565b9150613d1a82613cb3565b604082019050919050565b60006020820190508181036000830152613d3e81613d02565b9050919050565b7f4552433732313a2062616c616e636520717565727920666f7220746865207a6560008201527f726f206164647265737300000000000000000000000000000000000000000000602082015250565b6000613da1602a83612e07565b9150613dac82613d45565b604082019050919050565b60006020820190508181036000830152613dd081613d94565b9050919050565b7f4f776e61626c653a2063616c6c6572206973206e6f7420746865206f776e6572600082015250565b6000613e0d602083612e07565b9150613e1882613dd7565b602082019050919050565b60006020820190508181036000830152613e3c81613e00565b9050919050565b7f45524337323155524953746f726167653a2055524920717565727920666f722060008201527f6e6f6e6578697374656e7420746f6b656e000000000000000000000000000000602082015250565b6000613e9f603183612e07565b9150613eaa82613e43565b604082019050919050565b60006020820190508181036000830152613ece81613e92565b9050919050565b600081905092915050565b6000613eeb82612dfc565b613ef58185613ed5565b9350613f05818560208601612e18565b80840191505092915050565b6000613f1d8285613ee0565b9150613f298284613ee0565b91508190509392505050565b7f4f6e6c79206f776e65722063616e20736574206120746f6b656e20666f72207360008201527f616c652100000000000000000000000000000000000000000000000000000000602082015250565b6000613f91602483612e07565b9150613f9c82613f35565b604082019050919050565b60006020820190508181036000830152613fc081613f84565b9050919050565b7f546f6b656e20646f6573206e6f74206578697374000000000000000000000000600082015250565b6000613ffd601483612e07565b915061400882613fc7565b602082019050919050565b6000602082019050818103600083015261402c81613ff0565b9050919050565b7f546f6b656e20697320616c72656164792073657420746f206e6f7420666f722060008201527f73616c6500000000000000000000000000000000000000000000000000000000602082015250565b600061408f602483612e07565b915061409a82614033565b604082019050919050565b600060208201905081810360008301526140be81614082565b9050919050565b7f4f6e6c7920746f6b656e206f776e65722063616e207365742076616c75650000600082015250565b60006140fb601e83612e07565b9150614106826140c5565b602082019050919050565b6000602082019050818103600083015261412a816140ee565b9050919050565b7f4f776e61626c653a206e6577206f776e657220697320746865207a65726f206160008201527f6464726573730000000000000000000000000000000000000000000000000000602082015250565b600061418d602683612e07565b915061419882614131565b604082019050919050565b600060208201905081810360008301526141bc81614180565b9050919050565b60006141ce82612fe2565b91506141d983612fe2565b9250816bffffffffffffffffffffffff04831182151516156141fe576141fd6138b0565b5b828202905092915050565b7f455243323938313a20726f79616c7479206665652077696c6c2065786365656460008201527f2073616c65507269636500000000000000000000000000000000000000000000602082015250565b6000614265602a83612e07565b915061427082614209565b604082019050919050565b6000602082019050818103600083015261429481614258565b9050919050565b7f455243323938313a20496e76616c696420706172616d65746572730000000000600082015250565b60006142d1601b83612e07565b91506142dc8261429b565b602082019050919050565b60006020820190508181036000830152614300816142c4565b9050919050565b7f4552433732313a207472616e736665722066726f6d20696e636f72726563742060008201527f6f776e6572000000000000000000000000000000000000000000000000000000602082015250565b6000614363602583612e07565b915061436e82614307565b604082019050919050565b6000602082019050818103600083015261439281614356565b9050919050565b7f4552433732313a207472616e7366657220746f20746865207a65726f2061646460008201527f7265737300000000000000000000000000000000000000000000000000000000602082015250565b60006143f5602483612e07565b915061440082614399565b604082019050919050565b60006020820190508181036000830152614424816143e8565b9050919050565b600061443682612eb7565b915061444183612eb7565b925082821015614454576144536138b0565b5b828203905092915050565b600061446a82612eb7565b915061447583612eb7565b9250827fffffffffffffffffffffffffffffffffffffffffffffffffffffffffffffffff038211156144aa576144a96138b0565b5b828201905092915050565b7f4552433732313a206f70657261746f7220717565727920666f72206e6f6e657860008201527f697374656e7420746f6b656e0000000000000000000000000000000000000000602082015250565b6000614511602c83612e07565b915061451c826144b5565b604082019050919050565b6000602082019050818103600083015261454081614504565b9050919050565b6000819050919050565b600061455c82614547565b915061456783614547565b92508261457757614576613939565b5b600160000383147f8000000000000000000000000000000000000000000000000000000000000000831416156145b0576145af6138b0565b5b828205905092915050565b60006145c682614547565b91506145d183614547565b9250827f7fffffffffffffffffffffffffffffffffffffffffffffffffffffffffffffff04821160008413600084131616156146105761460f6138b0565b5b817f8000000000000000000000000000000000000000000000000000000000000000058312600084126000841316161561464d5761464c6138b0565b5b827f8000000000000000000000000000000000000000000000000000000000000000058212600084136000841216161561468a576146896138b0565b5b827f7fffffffffffffffffffffffffffffffffffffffffffffffffffffffffffffff05821260008412600084121616156146c7576146c66138b0565b5b828202905092915050565b7f4552433732313a20617070726f766520746f2063616c6c657200000000000000600082015250565b6000614708601983612e07565b9150614713826146d2565b602082019050919050565b60006020820190508181036000830152614737816146fb565b9050919050565b7f4552433732313a207472616e7366657220746f206e6f6e20455243373231526560008201527f63656976657220696d706c656d656e7465720000000000000000000000000000602082015250565b600061479a603283612e07565b91506147a58261473e565b604082019050919050565b600060208201905081810360008301526147c98161478d565b9050919050565b7f4552433732314d657461646174613a2055524920717565727920666f72206e6f60008201527f6e6578697374656e7420746f6b656e0000000000000000000000000000000000602082015250565b600061482c602f83612e07565b9150614837826147d0565b604082019050919050565b6000602082019050818103600083015261485b8161481f565b9050919050565b7f4552433732313a206d696e7420746f20746865207a65726f2061646472657373600082015250565b6000614898602083612e07565b91506148a382614862565b602082019050919050565b600060208201905081810360008301526148c78161488b565b9050919050565b7f4552433732313a20746f6b656e20616c7265616479206d696e74656400000000600082015250565b6000614904601c83612e07565b915061490f826148ce565b602082019050919050565b60006020820190508181036000830152614933816148f7565b9050919050565b7f45524337323155524953746f726167653a2055524920736574206f66206e6f6e60008201527f6578697374656e7420746f6b656e000000000000000000000000000000000000602082015250565b6000614996602e83612e07565b91506149a18261493a565b604082019050919050565b600060208201905081810360008301526149c581614989565b9050919050565b600081519050919050565b600082825260208201905092915050565b60006149f3826149cc565b6149fd81856149d7565b9350614a0d818560208601612e18565b614a1681612e4b565b840191505092915050565b6000608082019050614a366000830187612f4c565b614a436020830186612f4c565b614a50604083018561310c565b8181036060830152614a6281846149e8565b905095945050505050565b600081519050614a7c81612d6d565b92915050565b600060208284031215614a9857614a97612d37565b5b6000614aa684828501614a6d565b91505092915050565b6000614aba82612eb7565b91507fffffffffffffffffffffffffffffffffffffffffffffffffffffffffffffffff8203614aec57614aeb6138b0565b5b600182019050919050565b6000614b0282612eb7565b9150614b0d83612eb7565b925082614b1d57614b1c613939565b5b828206905092915050565b7f4e487b7100000000000000000000000000000000000000000000000000000000600052603260045260246000fdfea264697066735822122017c034cb3637ff3fa1d9c21775d424d269948603185c48953aec5b046b7fcc2d64736f6c634300080e0033",
  "immutableReferences": {},
  "source": "// SPDX-License-Identifier: MIT\npragma solidity ^0.8.0;\n\nimport \"@openzeppelin/contracts/utils/Counters.sol\";\nimport \"@openzeppelin/contracts/access/Ownable.sol\";\nimport \"@openzeppelin/contracts/token/ERC721/extensions/ERC721URIStorage.sol\";\nimport \"@openzeppelin/contracts/token/common/ERC2981.sol\";\nimport \"@openzeppelin/contracts/utils/math/SafeMath.sol\";\nimport \"@openzeppelin/contracts/utils/Address.sol\";\nimport \"@openzeppelin/contracts/token/ERC1155/extensions/ERC1155Supply.sol\";\n\ncontract NFT is Ownable, ERC721URIStorage , ERC2981 \n{\n    using Counters for Counters.Counter;\n    using Strings for uint256;\n    using SafeMath for uint256;\n\n     uint256 _platformCommission;\n    address _commissionReceiver;\n\n    string private baseURI;\n    string private baseExtension = \".json\";\n    address minter;\n    mapping(uint256 => bool) private _tokenForSale;\n    mapping(uint256 => uint256) private _tokenPrice;\n\n    Counters.Counter private _tokenIds;\n    mapping(string => bool) private _tokenExists;\n    uint256[] private totalTokens;\n\n\n\n     struct MYNFT {\n        uint256 tokenId;\n        address seller;\n        address buyer;\n        uint256 saleAmount;\n       \n    }\n\n    constructor(\n        string memory _initBaseURI,\n        string memory tokenName,\n        string memory tokenSymbol,\n        uint96 commission,\n        address commissionReceiver\n    ) ERC721(tokenName, tokenSymbol) {\n        setBaseURI(_initBaseURI);\n        _platformCommission = commission * 100; //10000 basis point\n        _commissionReceiver = commissionReceiver;\n        \n    }\n\n    function mint(string memory _tokenURI, string memory _setBaseURI ,uint96 royaltyperct ,address royaltypay)\n        public\n        returns (uint256)\n    {\n        _tokenIds.increment();\n        royaltyperct = royaltyperct*100;\n        uint256 newItemId = _tokenIds.current();\n        totalTokens.push(newItemId);\n        _mint(_msgSender(), newItemId);\n        _tokenForSale[newItemId] = false;\n        setBaseURI(_setBaseURI);\n        _setTokenURI(newItemId, _tokenURI);\n        setRoyaltyInfo(newItemId, royaltypay , royaltyperct) ;\n         minter = _msgSender();\n        return newItemId;\n\n    }\n\n   \n\n function setRoyaltyInfo(uint tokenId , address _receiver, uint96 _royaltyFee) public  {\n        _setTokenRoyalty(tokenId , _receiver, _royaltyFee);\n    }\n\n    function setBaseURI(string memory _newBaseURI) internal {\n        baseURI = _newBaseURI;\n    }\n\n    function _baseURI() internal view virtual override returns (string memory) {\n        return baseURI;\n    }\n\n    function setTokenForSale(uint256 tokenId, uint256 price ) public {\n        \n        require(_exists(tokenId), \"Token does not exist!\");\n        require(\n            ownerOf(tokenId) == _msgSender(),\n            \"Only owner can set a token for sale!\"\n        );\n        _tokenForSale[tokenId] = true;\n        _tokenPrice[tokenId] = price;\n        \n        \n    }\n    \n\n    function changeTokenPrice(uint256 tokenId, uint256 price) public {\n        require(_exists(tokenId), \"Token does not exist!\");\n        require(\n            _tokenForSale[tokenId],\n            \"Token is not for sale, set it sale first!\"\n        );\n        require(\n            ownerOf(tokenId) == _msgSender(),\n            \"Only owner can set the value!\"\n        );\n        _tokenPrice[tokenId] = price;\n    }\n\n\n\n    function _executeFundTransfer(MYNFT memory _data) internal {\n        uint256 _transferAbleAmount;\n        \n         _transferAbleAmount = _data.saleAmount;\n\n        // Pltform commission calculation\n        if(_platformCommission > 0) {\n            uint256 _commissionAmount = uint256(\n                (int256(_data.saleAmount) / int256(10000)) *\n                    int256(_platformCommission)\n            );\n            payable(_commissionReceiver).transfer(_commissionAmount);\n            _transferAbleAmount = _transferAbleAmount.sub(_commissionAmount);\n        }\n\n         payable(_data.seller).transfer(_transferAbleAmount);\n          _transfer(_data.seller, _data.buyer, _data.tokenId);\n        _tokenForSale[_data.tokenId] = false;\n       \n       \n    }\n\n    function buyNFT(uint256 tokenId ) public payable {\n        require(_tokenForSale[tokenId], \"Token is currently not for sale!\");\n        address owner = ownerOf(tokenId);\n        require(_msgSender()!= address(0), \"Buyer address cannot be zero\");\n        require(_msgSender() != owner, \"Cannot buy owned NFT\");\n        uint256 userBalance = msg.value;\n        uint256 tokenPrice = getTokenPrice(tokenId);\n        uint256 royaltyAmount;\n        address payee;\n        require(userBalance > tokenPrice, \"You dont have enough cash\");\n       \n\n       \n\n        if(minter != owner)\n        {\n            (payee, royaltyAmount) = royaltyInfo(tokenId,tokenPrice);\n            \n            if (royaltyAmount > 0) {\n            payable(payee).transfer(royaltyAmount);\n        }\n\n         }\n\n          MYNFT memory _data = MYNFT(\n            tokenId,\n            owner,\n            _msgSender(),\n            tokenPrice\n            \n        );\n\n        _executeFundTransfer(_data);\n        \n\n\n\n         \n    }\n    function removeTokenFromSale(uint256 tokenId) public {\n        require(_exists(tokenId), \"Token does not exist\");\n        require(_tokenForSale[tokenId], \"Token is already set to not for sale\");\n        require(\n            ownerOf(tokenId) == _msgSender(),\n            \"Only token owner can set value\"\n        );\n        _tokenForSale[tokenId] = false;\n    }\n\n    function giftToken(address receiver, uint256 tokenId) public {\n        address owner = ownerOf(tokenId);\n        require(_exists(tokenId), \"request for non existent token\");\n        require(_msgSender() == owner, \"Only owner can gift\");\n        _transfer(owner, receiver, tokenId);\n        _tokenForSale[tokenId] = false;\n    }\n\n    function isTokenForSale(uint256 tokenId) public view returns (bool) {\n        return _tokenForSale[tokenId];\n    }\n\n    function getTokenPrice(uint256 tokenId) public view returns (uint256) {\n        return _tokenPrice[tokenId];\n    }\n     function supportsInterface(bytes4 interfaceId)\n        public\n        view\n        override(ERC721, ERC2981)\n        returns (bool)\n    {\n        return super.supportsInterface(interfaceId);\n    }\n\n}",
  "sourcePath": "/home/deepanshu.tyagi/Desktop/kellton-nft-frontend/src/contracts/NFT.sol",
  "compiler": {
    "name": "solc",
    "version": "0.8.14+commit.80d49f37.Emscripten.clang"
  },
  "schemaVersion": "3.4.4",
  "updatedAt": "2022-05-19T09:45:12.049Z",
  "networkType": "ethereum",
  "devdoc": {
    "kind": "dev",
    "methods": {
      "approve(address,uint256)": {
        "details": "See {IERC721-approve}."
      },
      "balanceOf(address)": {
        "details": "See {IERC721-balanceOf}."
      },
      "getApproved(uint256)": {
        "details": "See {IERC721-getApproved}."
      },
      "isApprovedForAll(address,address)": {
        "details": "See {IERC721-isApprovedForAll}."
      },
      "name()": {
        "details": "See {IERC721Metadata-name}."
      },
      "owner()": {
        "details": "Returns the address of the current owner."
      },
      "ownerOf(uint256)": {
        "details": "See {IERC721-ownerOf}."
      },
      "renounceOwnership()": {
        "details": "Leaves the contract without owner. It will not be possible to call `onlyOwner` functions anymore. Can only be called by the current owner. NOTE: Renouncing ownership will leave the contract without an owner, thereby removing any functionality that is only available to the owner."
      },
      "royaltyInfo(uint256,uint256)": {
        "details": "Returns how much royalty is owed and to whom, based on a sale price that may be denominated in any unit of exchange. The royalty amount is denominated and should be paid in that same unit of exchange."
      },
      "safeTransferFrom(address,address,uint256)": {
        "details": "See {IERC721-safeTransferFrom}."
      },
      "safeTransferFrom(address,address,uint256,bytes)": {
        "details": "See {IERC721-safeTransferFrom}."
      },
      "setApprovalForAll(address,bool)": {
        "details": "See {IERC721-setApprovalForAll}."
      },
      "symbol()": {
        "details": "See {IERC721Metadata-symbol}."
      },
      "tokenURI(uint256)": {
        "details": "See {IERC721Metadata-tokenURI}."
      },
      "transferFrom(address,address,uint256)": {
        "details": "See {IERC721-transferFrom}."
      },
      "transferOwnership(address)": {
        "details": "Transfers ownership of the contract to a new account (`newOwner`). Can only be called by the current owner."
      }
    },
    "version": 1
  },
  "userdoc": {
    "kind": "user",
    "methods": {},
    "version": 1
  }
}