{
  "contractName": "NFT",
  "abi": [
    {
      "inputs": [
        {
          "internalType": "string",
          "name": "_initBaseURI",
          "type": "string"
        },
        {
          "internalType": "string",
          "name": "tokenName",
          "type": "string"
        },
        {
          "internalType": "string",
          "name": "tokenSymbol",
          "type": "string"
        }
      ],
      "stateMutability": "nonpayable",
      "type": "constructor"
    },
    {
      "anonymous": false,
      "inputs": [
        {
          "indexed": true,
          "internalType": "address",
          "name": "owner",
          "type": "address"
        },
        {
          "indexed": true,
          "internalType": "address",
          "name": "approved",
          "type": "address"
        },
        {
          "indexed": true,
          "internalType": "uint256",
          "name": "tokenId",
          "type": "uint256"
        }
      ],
      "name": "Approval",
      "type": "event"
    },
    {
      "anonymous": false,
      "inputs": [
        {
          "indexed": true,
          "internalType": "address",
          "name": "owner",
          "type": "address"
        },
        {
          "indexed": true,
          "internalType": "address",
          "name": "operator",
          "type": "address"
        },
        {
          "indexed": false,
          "internalType": "bool",
          "name": "approved",
          "type": "bool"
        }
      ],
      "name": "ApprovalForAll",
      "type": "event"
    },
    {
      "anonymous": false,
      "inputs": [
        {
          "indexed": true,
          "internalType": "address",
          "name": "previousOwner",
          "type": "address"
        },
        {
          "indexed": true,
          "internalType": "address",
          "name": "newOwner",
          "type": "address"
        }
      ],
      "name": "OwnershipTransferred",
      "type": "event"
    },
    {
      "anonymous": false,
      "inputs": [
        {
          "indexed": true,
          "internalType": "address",
          "name": "from",
          "type": "address"
        },
        {
          "indexed": true,
          "internalType": "address",
          "name": "to",
          "type": "address"
        },
        {
          "indexed": true,
          "internalType": "uint256",
          "name": "tokenId",
          "type": "uint256"
        }
      ],
      "name": "Transfer",
      "type": "event"
    },
    {
      "inputs": [
        {
          "internalType": "address",
          "name": "to",
          "type": "address"
        },
        {
          "internalType": "uint256",
          "name": "tokenId",
          "type": "uint256"
        }
      ],
      "name": "approve",
      "outputs": [],
      "stateMutability": "nonpayable",
      "type": "function"
    },
    {
      "inputs": [
        {
          "internalType": "address",
          "name": "owner",
          "type": "address"
        }
      ],
      "name": "balanceOf",
      "outputs": [
        {
          "internalType": "uint256",
          "name": "",
          "type": "uint256"
        }
      ],
      "stateMutability": "view",
      "type": "function",
      "constant": true
    },
    {
      "inputs": [
        {
          "internalType": "uint256",
          "name": "tokenId",
          "type": "uint256"
        }
      ],
      "name": "getApproved",
      "outputs": [
        {
          "internalType": "address",
          "name": "",
          "type": "address"
        }
      ],
      "stateMutability": "view",
      "type": "function",
      "constant": true
    },
    {
      "inputs": [
        {
          "internalType": "address",
          "name": "owner",
          "type": "address"
        },
        {
          "internalType": "address",
          "name": "operator",
          "type": "address"
        }
      ],
      "name": "isApprovedForAll",
      "outputs": [
        {
          "internalType": "bool",
          "name": "",
          "type": "bool"
        }
      ],
      "stateMutability": "view",
      "type": "function",
      "constant": true
    },
    {
      "inputs": [],
      "name": "name",
      "outputs": [
        {
          "internalType": "string",
          "name": "",
          "type": "string"
        }
      ],
      "stateMutability": "view",
      "type": "function",
      "constant": true
    },
    {
      "inputs": [],
      "name": "owner",
      "outputs": [
        {
          "internalType": "address",
          "name": "",
          "type": "address"
        }
      ],
      "stateMutability": "view",
      "type": "function",
      "constant": true
    },
    {
      "inputs": [
        {
          "internalType": "uint256",
          "name": "tokenId",
          "type": "uint256"
        }
      ],
      "name": "ownerOf",
      "outputs": [
        {
          "internalType": "address",
          "name": "",
          "type": "address"
        }
      ],
      "stateMutability": "view",
      "type": "function",
      "constant": true
    },
    {
      "inputs": [],
      "name": "renounceOwnership",
      "outputs": [],
      "stateMutability": "nonpayable",
      "type": "function"
    },
    {
      "inputs": [
        {
          "internalType": "address",
          "name": "from",
          "type": "address"
        },
        {
          "internalType": "address",
          "name": "to",
          "type": "address"
        },
        {
          "internalType": "uint256",
          "name": "tokenId",
          "type": "uint256"
        }
      ],
      "name": "safeTransferFrom",
      "outputs": [],
      "stateMutability": "nonpayable",
      "type": "function"
    },
    {
      "inputs": [
        {
          "internalType": "address",
          "name": "from",
          "type": "address"
        },
        {
          "internalType": "address",
          "name": "to",
          "type": "address"
        },
        {
          "internalType": "uint256",
          "name": "tokenId",
          "type": "uint256"
        },
        {
          "internalType": "bytes",
          "name": "_data",
          "type": "bytes"
        }
      ],
      "name": "safeTransferFrom",
      "outputs": [],
      "stateMutability": "nonpayable",
      "type": "function"
    },
    {
      "inputs": [
        {
          "internalType": "address",
          "name": "operator",
          "type": "address"
        },
        {
          "internalType": "bool",
          "name": "approved",
          "type": "bool"
        }
      ],
      "name": "setApprovalForAll",
      "outputs": [],
      "stateMutability": "nonpayable",
      "type": "function"
    },
    {
      "inputs": [
        {
          "internalType": "bytes4",
          "name": "interfaceId",
          "type": "bytes4"
        }
      ],
      "name": "supportsInterface",
      "outputs": [
        {
          "internalType": "bool",
          "name": "",
          "type": "bool"
        }
      ],
      "stateMutability": "view",
      "type": "function",
      "constant": true
    },
    {
      "inputs": [],
      "name": "symbol",
      "outputs": [
        {
          "internalType": "string",
          "name": "",
          "type": "string"
        }
      ],
      "stateMutability": "view",
      "type": "function",
      "constant": true
    },
    {
      "inputs": [
        {
          "internalType": "uint256",
          "name": "tokenId",
          "type": "uint256"
        }
      ],
      "name": "tokenURI",
      "outputs": [
        {
          "internalType": "string",
          "name": "",
          "type": "string"
        }
      ],
      "stateMutability": "view",
      "type": "function",
      "constant": true
    },
    {
      "inputs": [
        {
          "internalType": "address",
          "name": "from",
          "type": "address"
        },
        {
          "internalType": "address",
          "name": "to",
          "type": "address"
        },
        {
          "internalType": "uint256",
          "name": "tokenId",
          "type": "uint256"
        }
      ],
      "name": "transferFrom",
      "outputs": [],
      "stateMutability": "nonpayable",
      "type": "function"
    },
    {
      "inputs": [
        {
          "internalType": "address",
          "name": "newOwner",
          "type": "address"
        }
      ],
      "name": "transferOwnership",
      "outputs": [],
      "stateMutability": "nonpayable",
      "type": "function"
    },
    {
      "inputs": [
        {
          "internalType": "string",
          "name": "_tokenURI",
          "type": "string"
        },
        {
          "internalType": "string",
          "name": "_setBaseURI",
          "type": "string"
        }
      ],
      "name": "mint",
      "outputs": [
        {
          "internalType": "uint256",
          "name": "",
          "type": "uint256"
        }
      ],
      "stateMutability": "nonpayable",
      "type": "function"
    },
    {
      "inputs": [
        {
          "internalType": "uint256",
          "name": "tokenId",
          "type": "uint256"
        },
        {
          "internalType": "uint256",
          "name": "price",
          "type": "uint256"
        }
      ],
      "name": "setTokenForSale",
      "outputs": [],
      "stateMutability": "nonpayable",
      "type": "function"
    },
    {
      "inputs": [
        {
          "internalType": "uint256",
          "name": "tokenId",
          "type": "uint256"
        },
        {
          "internalType": "uint256",
          "name": "price",
          "type": "uint256"
        }
      ],
      "name": "changeTokenPrice",
      "outputs": [],
      "stateMutability": "nonpayable",
      "type": "function"
    },
    {
      "inputs": [
        {
          "internalType": "uint256",
          "name": "tokenId",
          "type": "uint256"
        }
      ],
      "name": "buyNFT",
      "outputs": [],
      "stateMutability": "payable",
      "type": "function",
      "payable": true
    },
    {
      "inputs": [
        {
          "internalType": "uint256",
          "name": "tokenId",
          "type": "uint256"
        }
      ],
      "name": "removeTokenFromSale",
      "outputs": [],
      "stateMutability": "nonpayable",
      "type": "function"
    },
    {
      "inputs": [
        {
          "internalType": "address",
          "name": "receiver",
          "type": "address"
        },
        {
          "internalType": "uint256",
          "name": "tokenId",
          "type": "uint256"
        }
      ],
      "name": "giftToken",
      "outputs": [],
      "stateMutability": "nonpayable",
      "type": "function"
    },
    {
      "inputs": [
        {
          "internalType": "uint256",
          "name": "tokenId",
          "type": "uint256"
        }
      ],
      "name": "isTokenForSale",
      "outputs": [
        {
          "internalType": "bool",
          "name": "",
          "type": "bool"
        }
      ],
      "stateMutability": "view",
      "type": "function",
      "constant": true
    },
    {
      "inputs": [
        {
          "internalType": "uint256",
          "name": "tokenId",
          "type": "uint256"
        }
      ],
      "name": "getTokenPrice",
      "outputs": [
        {
          "internalType": "uint256",
          "name": "",
          "type": "uint256"
        }
      ],
      "stateMutability": "view",
      "type": "function",
      "constant": true
    }
  ],
  "bytecode": "0x60806040526040518060400160405280600581526020017f2e6a736f6e0000000000000000000000000000000000000000000000000000008152506009908051906020019062000051929190620001dd565b503480156200005f57600080fd5b50604051620045c1380380620045c183398181016040528101906200008591906200042a565b8181620000a76200009b620000f560201b60201c565b620000fd60201b60201c565b8160019080519060200190620000bf929190620001dd565b508060029080519060200190620000d8929190620001dd565b505050620000ec83620001c160201b60201c565b50505062000547565b600033905090565b60008060009054906101000a900473ffffffffffffffffffffffffffffffffffffffff169050816000806101000a81548173ffffffffffffffffffffffffffffffffffffffff021916908373ffffffffffffffffffffffffffffffffffffffff1602179055508173ffffffffffffffffffffffffffffffffffffffff168173ffffffffffffffffffffffffffffffffffffffff167f8be0079c531659141344cd1fd0a4f28419497f9722a3daafe3b4186f6b6457e060405160405180910390a35050565b8060089080519060200190620001d9929190620001dd565b5050565b828054620001eb9062000512565b90600052602060002090601f0160209004810192826200020f57600085556200025b565b82601f106200022a57805160ff19168380011785556200025b565b828001600101855582156200025b579182015b828111156200025a5782518255916020019190600101906200023d565b5b5090506200026a91906200026e565b5090565b5b80821115620002895760008160009055506001016200026f565b5090565b6000604051905090565b600080fd5b600080fd5b600080fd5b600080fd5b6000601f19601f8301169050919050565b7f4e487b7100000000000000000000000000000000000000000000000000000000600052604160045260246000fd5b620002f682620002ab565b810181811067ffffffffffffffff82111715620003185762000317620002bc565b5b80604052505050565b60006200032d6200028d565b90506200033b8282620002eb565b919050565b600067ffffffffffffffff8211156200035e576200035d620002bc565b5b6200036982620002ab565b9050602081019050919050565b60005b838110156200039657808201518184015260208101905062000379565b83811115620003a6576000848401525b50505050565b6000620003c3620003bd8462000340565b62000321565b905082815260208101848484011115620003e257620003e1620002a6565b5b620003ef84828562000376565b509392505050565b600082601f8301126200040f576200040e620002a1565b5b815162000421848260208601620003ac565b91505092915050565b60008060006060848603121562000446576200044562000297565b5b600084015167ffffffffffffffff8111156200046757620004666200029c565b5b6200047586828701620003f7565b935050602084015167ffffffffffffffff8111156200049957620004986200029c565b5b620004a786828701620003f7565b925050604084015167ffffffffffffffff811115620004cb57620004ca6200029c565b5b620004d986828701620003f7565b9150509250925092565b7f4e487b7100000000000000000000000000000000000000000000000000000000600052602260045260246000fd5b600060028204905060018216806200052b57607f821691505b602082108103620005415762000540620004e3565b5b50919050565b61406a80620005576000396000f3fe60806040526004361061014b5760003560e01c8063715018a6116100b6578063c457fb371161006f578063c457fb3714610491578063c87b56dd146104ce578063cb233ce21461050b578063e8cdea1114610534578063e985e9c51461055d578063f2fde38b1461059a5761014b565b8063715018a6146103955780638aa0fdad146103ac5780638da5cb5b146103e957806395d89b4114610414578063a22cb4651461043f578063b88d4fde146104685761014b565b806342842e0e1161010857806342842e0e146102705780634fed1c941461029957806351ed8288146102d657806362e8e8ac146102f25780636352211e1461031b57806370a08231146103585761014b565b806301ffc9a71461015057806306fdde031461018d578063081812fc146101b8578063095ea7b3146101f55780631f24285d1461021e57806323b872dd14610247575b600080fd5b34801561015c57600080fd5b5061017760048036038101906101729190612686565b6105c3565b60405161018491906126ce565b60405180910390f35b34801561019957600080fd5b506101a26106a5565b6040516101af9190612782565b60405180910390f35b3480156101c457600080fd5b506101df60048036038101906101da91906127da565b610737565b6040516101ec9190612848565b60405180910390f35b34801561020157600080fd5b5061021c6004803603810190610217919061288f565b6107bc565b005b34801561022a57600080fd5b506102456004803603810190610240919061288f565b6108d3565b005b34801561025357600080fd5b5061026e600480360381019061026991906128cf565b6109d9565b005b34801561027c57600080fd5b50610297600480360381019061029291906128cf565b610a39565b005b3480156102a557600080fd5b506102c060048036038101906102bb91906127da565b610a59565b6040516102cd91906126ce565b60405180910390f35b6102f060048036038101906102eb91906127da565b610a83565b005b3480156102fe57600080fd5b5061031960048036038101906103149190612922565b610ce4565b005b34801561032757600080fd5b50610342600480360381019061033d91906127da565b610e25565b60405161034f9190612848565b60405180910390f35b34801561036457600080fd5b5061037f600480360381019061037a9190612962565b610ed6565b60405161038c919061299e565b60405180910390f35b3480156103a157600080fd5b506103aa610f8d565b005b3480156103b857600080fd5b506103d360048036038101906103ce9190612aee565b611015565b6040516103e0919061299e565b60405180910390f35b3480156103f557600080fd5b506103fe6110ab565b60405161040b9190612848565b60405180910390f35b34801561042057600080fd5b506104296110d4565b6040516104369190612782565b60405180910390f35b34801561044b57600080fd5b5061046660048036038101906104619190612b92565b611166565b005b34801561047457600080fd5b5061048f600480360381019061048a9190612c73565b61117c565b005b34801561049d57600080fd5b506104b860048036038101906104b391906127da565b6111de565b6040516104c5919061299e565b60405180910390f35b3480156104da57600080fd5b506104f560048036038101906104f091906127da565b6111fb565b6040516105029190612782565b60405180910390f35b34801561051757600080fd5b50610532600480360381019061052d9190612922565b61134c565b005b34801561054057600080fd5b5061055b600480360381019061055691906127da565b611459565b005b34801561056957600080fd5b50610584600480360381019061057f9190612cf6565b6115ad565b60405161059191906126ce565b60405180910390f35b3480156105a657600080fd5b506105c160048036038101906105bc9190612962565b611641565b005b60007f80ac58cd000000000000000000000000000000000000000000000000000000007bffffffffffffffffffffffffffffffffffffffffffffffffffffffff1916827bffffffffffffffffffffffffffffffffffffffffffffffffffffffff1916148061068e57507f5b5e139f000000000000000000000000000000000000000000000000000000007bffffffffffffffffffffffffffffffffffffffffffffffffffffffff1916827bffffffffffffffffffffffffffffffffffffffffffffffffffffffff1916145b8061069e575061069d82611738565b5b9050919050565b6060600180546106b490612d65565b80601f01602080910402602001604051908101604052809291908181526020018280546106e090612d65565b801561072d5780601f106107025761010080835404028352916020019161072d565b820191906000526020600020905b81548152906001019060200180831161071057829003601f168201915b5050505050905090565b6000610742826117a2565b610781576040517f08c379a000000000000000000000000000000000000000000000000000000000815260040161077890612e08565b60405180910390fd5b6005600083815260200190815260200160002060009054906101000a900473ffffffffffffffffffffffffffffffffffffffff169050919050565b60006107c782610e25565b90508073ffffffffffffffffffffffffffffffffffffffff168373ffffffffffffffffffffffffffffffffffffffff1603610837576040517f08c379a000000000000000000000000000000000000000000000000000000000815260040161082e90612e9a565b60405180910390fd5b8073ffffffffffffffffffffffffffffffffffffffff1661085661180e565b73ffffffffffffffffffffffffffffffffffffffff16148061088557506108848161087f61180e565b6115ad565b5b6108c4576040517f08c379a00000000000000000000000000000000000000000000000000000000081526004016108bb90612f2c565b60405180910390fd5b6108ce8383611816565b505050565b60006108de82610e25565b90506108e9826117a2565b610928576040517f08c379a000000000000000000000000000000000000000000000000000000000815260040161091f90612f98565b60405180910390fd5b8073ffffffffffffffffffffffffffffffffffffffff1661094761180e565b73ffffffffffffffffffffffffffffffffffffffff161461099d576040517f08c379a000000000000000000000000000000000000000000000000000000000815260040161099490613004565b60405180910390fd5b6109a88184846118cf565b6000600a600084815260200190815260200160002060006101000a81548160ff021916908315150217905550505050565b6109ea6109e461180e565b82611b35565b610a29576040517f08c379a0000000000000000000000000000000000000000000000000000000008152600401610a2090613096565b60405180910390fd5b610a348383836118cf565b505050565b610a548383836040518060200160405280600081525061117c565b505050565b6000600a600083815260200190815260200160002060009054906101000a900460ff169050919050565b600a600082815260200190815260200160002060009054906101000a900460ff16610ae3576040517f08c379a0000000000000000000000000000000000000000000000000000000008152600401610ada90613102565b60405180910390fd5b6000610aee82610e25565b9050600073ffffffffffffffffffffffffffffffffffffffff16610b1061180e565b73ffffffffffffffffffffffffffffffffffffffff1603610b66576040517f08c379a0000000000000000000000000000000000000000000000000000000008152600401610b5d9061316e565b60405180910390fd5b8073ffffffffffffffffffffffffffffffffffffffff16610b8561180e565b73ffffffffffffffffffffffffffffffffffffffff1603610bdb576040517f08c379a0000000000000000000000000000000000000000000000000000000008152600401610bd2906131da565b60405180910390fd5b6000670de0b6b3a76400003373ffffffffffffffffffffffffffffffffffffffff1631610c089190613258565b90506000610c15846111de565b9050808211610c59576040517f08c379a0000000000000000000000000000000000000000000000000000000008152600401610c50906132d5565b60405180910390fd5b8273ffffffffffffffffffffffffffffffffffffffff166108fc349081150290604051600060405180830381858888f19350505050158015610c9f573d6000803e3d6000fd5b50610cb283610cac61180e565b866118cf565b6000600a600086815260200190815260200160002060006101000a81548160ff02191690831515021790555050505050565b610ced826117a2565b610d2c576040517f08c379a0000000000000000000000000000000000000000000000000000000008152600401610d2390613341565b60405180910390fd5b600a600083815260200190815260200160002060009054906101000a900460ff16610d8c576040517f08c379a0000000000000000000000000000000000000000000000000000000008152600401610d83906133d3565b60405180910390fd5b610d9461180e565b73ffffffffffffffffffffffffffffffffffffffff16610db383610e25565b73ffffffffffffffffffffffffffffffffffffffff1614610e09576040517f08c379a0000000000000000000000000000000000000000000000000000000008152600401610e009061343f565b60405180910390fd5b80600b6000848152602001908152602001600020819055505050565b6000806003600084815260200190815260200160002060009054906101000a900473ffffffffffffffffffffffffffffffffffffffff169050600073ffffffffffffffffffffffffffffffffffffffff168173ffffffffffffffffffffffffffffffffffffffff1603610ecd576040517f08c379a0000000000000000000000000000000000000000000000000000000008152600401610ec4906134d1565b60405180910390fd5b80915050919050565b60008073ffffffffffffffffffffffffffffffffffffffff168273ffffffffffffffffffffffffffffffffffffffff1603610f46576040517f08c379a0000000000000000000000000000000000000000000000000000000008152600401610f3d90613563565b60405180910390fd5b600460008373ffffffffffffffffffffffffffffffffffffffff1673ffffffffffffffffffffffffffffffffffffffff168152602001908152602001600020549050919050565b610f9561180e565b73ffffffffffffffffffffffffffffffffffffffff16610fb36110ab565b73ffffffffffffffffffffffffffffffffffffffff1614611009576040517f08c379a0000000000000000000000000000000000000000000000000000000008152600401611000906135cf565b60405180910390fd5b6110136000611c13565b565b6000611021600c611cd7565b600061102d600c611ced565b9050600e8190806001815401808255809150506001900390600052602060002001600090919091909150556110623382611cfb565b6000600a600083815260200190815260200160002060006101000a81548160ff02191690831515021790555061109783611ed4565b6110a18185611eee565b8091505092915050565b60008060009054906101000a900473ffffffffffffffffffffffffffffffffffffffff16905090565b6060600280546110e390612d65565b80601f016020809104026020016040519081016040528092919081815260200182805461110f90612d65565b801561115c5780601f106111315761010080835404028352916020019161115c565b820191906000526020600020905b81548152906001019060200180831161113f57829003601f168201915b5050505050905090565b61117861117161180e565b8383611f62565b5050565b61118d61118761180e565b83611b35565b6111cc576040517f08c379a00000000000000000000000000000000000000000000000000000000081526004016111c390613096565b60405180910390fd5b6111d8848484846120ce565b50505050565b6000600b6000838152602001908152602001600020549050919050565b6060611206826117a2565b611245576040517f08c379a000000000000000000000000000000000000000000000000000000000815260040161123c90613661565b60405180910390fd5b600060076000848152602001908152602001600020805461126590612d65565b80601f016020809104026020016040519081016040528092919081815260200182805461129190612d65565b80156112de5780601f106112b3576101008083540402835291602001916112de565b820191906000526020600020905b8154815290600101906020018083116112c157829003601f168201915b5050505050905060006112ef61212a565b90506000815103611304578192505050611347565b6000825111156113395780826040516020016113219291906136bd565b60405160208183030381529060405292505050611347565b611342846121bc565b925050505b919050565b611355826117a2565b611394576040517f08c379a000000000000000000000000000000000000000000000000000000000815260040161138b90613341565b60405180910390fd5b61139c61180e565b73ffffffffffffffffffffffffffffffffffffffff166113bb83610e25565b73ffffffffffffffffffffffffffffffffffffffff1614611411576040517f08c379a000000000000000000000000000000000000000000000000000000000815260040161140890613753565b60405180910390fd5b6001600a600084815260200190815260200160002060006101000a81548160ff02191690831515021790555080600b6000848152602001908152602001600020819055505050565b611462816117a2565b6114a1576040517f08c379a0000000000000000000000000000000000000000000000000000000008152600401611498906137bf565b60405180910390fd5b600a600082815260200190815260200160002060009054906101000a900460ff16611501576040517f08c379a00000000000000000000000000000000000000000000000000000000081526004016114f890613851565b60405180910390fd5b61150961180e565b73ffffffffffffffffffffffffffffffffffffffff1661152882610e25565b73ffffffffffffffffffffffffffffffffffffffff161461157e576040517f08c379a0000000000000000000000000000000000000000000000000000000008152600401611575906138bd565b60405180910390fd5b6000600a600083815260200190815260200160002060006101000a81548160ff02191690831515021790555050565b6000600660008473ffffffffffffffffffffffffffffffffffffffff1673ffffffffffffffffffffffffffffffffffffffff16815260200190815260200160002060008373ffffffffffffffffffffffffffffffffffffffff1673ffffffffffffffffffffffffffffffffffffffff16815260200190815260200160002060009054906101000a900460ff16905092915050565b61164961180e565b73ffffffffffffffffffffffffffffffffffffffff166116676110ab565b73ffffffffffffffffffffffffffffffffffffffff16146116bd576040517f08c379a00000000000000000000000000000000000000000000000000000000081526004016116b4906135cf565b60405180910390fd5b600073ffffffffffffffffffffffffffffffffffffffff168173ffffffffffffffffffffffffffffffffffffffff160361172c576040517f08c379a00000000000000000000000000000000000000000000000000000000081526004016117239061394f565b60405180910390fd5b61173581611c13565b50565b60007f01ffc9a7000000000000000000000000000000000000000000000000000000007bffffffffffffffffffffffffffffffffffffffffffffffffffffffff1916827bffffffffffffffffffffffffffffffffffffffffffffffffffffffff1916149050919050565b60008073ffffffffffffffffffffffffffffffffffffffff166003600084815260200190815260200160002060009054906101000a900473ffffffffffffffffffffffffffffffffffffffff1673ffffffffffffffffffffffffffffffffffffffff1614159050919050565b600033905090565b816005600083815260200190815260200160002060006101000a81548173ffffffffffffffffffffffffffffffffffffffff021916908373ffffffffffffffffffffffffffffffffffffffff160217905550808273ffffffffffffffffffffffffffffffffffffffff1661188983610e25565b73ffffffffffffffffffffffffffffffffffffffff167f8c5be1e5ebec7d5bd14f71427d1e84f3dd0314c0f7b2291e5b200ac8c7c3b92560405160405180910390a45050565b8273ffffffffffffffffffffffffffffffffffffffff166118ef82610e25565b73ffffffffffffffffffffffffffffffffffffffff1614611945576040517f08c379a000000000000000000000000000000000000000000000000000000000815260040161193c906139e1565b60405180910390fd5b600073ffffffffffffffffffffffffffffffffffffffff168273ffffffffffffffffffffffffffffffffffffffff16036119b4576040517f08c379a00000000000000000000000000000000000000000000000000000000081526004016119ab90613a73565b60405180910390fd5b6119bf838383612263565b6119ca600082611816565b6001600460008573ffffffffffffffffffffffffffffffffffffffff1673ffffffffffffffffffffffffffffffffffffffff1681526020019081526020016000206000828254611a1a9190613a93565b925050819055506001600460008473ffffffffffffffffffffffffffffffffffffffff1673ffffffffffffffffffffffffffffffffffffffff1681526020019081526020016000206000828254611a719190613ac7565b92505081905550816003600083815260200190815260200160002060006101000a81548173ffffffffffffffffffffffffffffffffffffffff021916908373ffffffffffffffffffffffffffffffffffffffff160217905550808273ffffffffffffffffffffffffffffffffffffffff168473ffffffffffffffffffffffffffffffffffffffff167fddf252ad1be2c89b69c2b068fc378daa952ba7f163c4a11628f55a4df523b3ef60405160405180910390a4611b30838383612268565b505050565b6000611b40826117a2565b611b7f576040517f08c379a0000000000000000000000000000000000000000000000000000000008152600401611b7690613b8f565b60405180910390fd5b6000611b8a83610e25565b90508073ffffffffffffffffffffffffffffffffffffffff168473ffffffffffffffffffffffffffffffffffffffff161480611bcc5750611bcb81856115ad565b5b80611c0a57508373ffffffffffffffffffffffffffffffffffffffff16611bf284610737565b73ffffffffffffffffffffffffffffffffffffffff16145b91505092915050565b60008060009054906101000a900473ffffffffffffffffffffffffffffffffffffffff169050816000806101000a81548173ffffffffffffffffffffffffffffffffffffffff021916908373ffffffffffffffffffffffffffffffffffffffff1602179055508173ffffffffffffffffffffffffffffffffffffffff168173ffffffffffffffffffffffffffffffffffffffff167f8be0079c531659141344cd1fd0a4f28419497f9722a3daafe3b4186f6b6457e060405160405180910390a35050565b6001816000016000828254019250508190555050565b600081600001549050919050565b600073ffffffffffffffffffffffffffffffffffffffff168273ffffffffffffffffffffffffffffffffffffffff1603611d6a576040517f08c379a0000000000000000000000000000000000000000000000000000000008152600401611d6190613bfb565b60405180910390fd5b611d73816117a2565b15611db3576040517f08c379a0000000000000000000000000000000000000000000000000000000008152600401611daa90613c67565b60405180910390fd5b611dbf60008383612263565b6001600460008473ffffffffffffffffffffffffffffffffffffffff1673ffffffffffffffffffffffffffffffffffffffff1681526020019081526020016000206000828254611e0f9190613ac7565b92505081905550816003600083815260200190815260200160002060006101000a81548173ffffffffffffffffffffffffffffffffffffffff021916908373ffffffffffffffffffffffffffffffffffffffff160217905550808273ffffffffffffffffffffffffffffffffffffffff16600073ffffffffffffffffffffffffffffffffffffffff167fddf252ad1be2c89b69c2b068fc378daa952ba7f163c4a11628f55a4df523b3ef60405160405180910390a4611ed060008383612268565b5050565b8060089080519060200190611eea929190612577565b5050565b611ef7826117a2565b611f36576040517f08c379a0000000000000000000000000000000000000000000000000000000008152600401611f2d90613cf9565b60405180910390fd5b80600760008481526020019081526020016000209080519060200190611f5d929190612577565b505050565b8173ffffffffffffffffffffffffffffffffffffffff168373ffffffffffffffffffffffffffffffffffffffff1603611fd0576040517f08c379a0000000000000000000000000000000000000000000000000000000008152600401611fc790613d65565b60405180910390fd5b80600660008573ffffffffffffffffffffffffffffffffffffffff1673ffffffffffffffffffffffffffffffffffffffff16815260200190815260200160002060008473ffffffffffffffffffffffffffffffffffffffff1673ffffffffffffffffffffffffffffffffffffffff16815260200190815260200160002060006101000a81548160ff0219169083151502179055508173ffffffffffffffffffffffffffffffffffffffff168373ffffffffffffffffffffffffffffffffffffffff167f17307eab39ab6107e8899845ad3d59bd9653f200f220920489ca2b5937696c31836040516120c191906126ce565b60405180910390a3505050565b6120d98484846118cf565b6120e58484848461226d565b612124576040517f08c379a000000000000000000000000000000000000000000000000000000000815260040161211b90613df7565b60405180910390fd5b50505050565b60606008805461213990612d65565b80601f016020809104026020016040519081016040528092919081815260200182805461216590612d65565b80156121b25780601f10612187576101008083540402835291602001916121b2565b820191906000526020600020905b81548152906001019060200180831161219557829003601f168201915b5050505050905090565b60606121c7826117a2565b612206576040517f08c379a00000000000000000000000000000000000000000000000000000000081526004016121fd90613e89565b60405180910390fd5b600061221061212a565b90506000815111612230576040518060200160405280600081525061225b565b8061223a846123f4565b60405160200161224b9291906136bd565b6040516020818303038152906040525b915050919050565b505050565b505050565b600061228e8473ffffffffffffffffffffffffffffffffffffffff16612554565b156123e7578373ffffffffffffffffffffffffffffffffffffffff1663150b7a026122b761180e565b8786866040518563ffffffff1660e01b81526004016122d99493929190613efe565b6020604051808303816000875af192505050801561231557506040513d601f19601f820116820180604052508101906123129190613f5f565b60015b612397573d8060008114612345576040519150601f19603f3d011682016040523d82523d6000602084013e61234a565b606091505b50600081510361238f576040517f08c379a000000000000000000000000000000000000000000000000000000000815260040161238690613df7565b60405180910390fd5b805181602001fd5b63150b7a0260e01b7bffffffffffffffffffffffffffffffffffffffffffffffffffffffff1916817bffffffffffffffffffffffffffffffffffffffffffffffffffffffff1916149150506123ec565b600190505b949350505050565b60606000820361243b576040518060400160405280600181526020017f3000000000000000000000000000000000000000000000000000000000000000815250905061254f565b600082905060005b6000821461246d57808061245690613f8c565b915050600a826124669190613258565b9150612443565b60008167ffffffffffffffff811115612489576124886129c3565b5b6040519080825280601f01601f1916602001820160405280156124bb5781602001600182028036833780820191505090505b5090505b60008514612548576001826124d49190613a93565b9150600a856124e39190613fd4565b60306124ef9190613ac7565b60f81b81838151811061250557612504614005565b5b60200101907effffffffffffffffffffffffffffffffffffffffffffffffffffffffffffff1916908160001a905350600a856125419190613258565b94506124bf565b8093505050505b919050565b6000808273ffffffffffffffffffffffffffffffffffffffff163b119050919050565b82805461258390612d65565b90600052602060002090601f0160209004810192826125a557600085556125ec565b82601f106125be57805160ff19168380011785556125ec565b828001600101855582156125ec579182015b828111156125eb5782518255916020019190600101906125d0565b5b5090506125f991906125fd565b5090565b5b808211156126165760008160009055506001016125fe565b5090565b6000604051905090565b600080fd5b600080fd5b60007fffffffff0000000000000000000000000000000000000000000000000000000082169050919050565b6126638161262e565b811461266e57600080fd5b50565b6000813590506126808161265a565b92915050565b60006020828403121561269c5761269b612624565b5b60006126aa84828501612671565b91505092915050565b60008115159050919050565b6126c8816126b3565b82525050565b60006020820190506126e360008301846126bf565b92915050565b600081519050919050565b600082825260208201905092915050565b60005b83811015612723578082015181840152602081019050612708565b83811115612732576000848401525b50505050565b6000601f19601f8301169050919050565b6000612754826126e9565b61275e81856126f4565b935061276e818560208601612705565b61277781612738565b840191505092915050565b6000602082019050818103600083015261279c8184612749565b905092915050565b6000819050919050565b6127b7816127a4565b81146127c257600080fd5b50565b6000813590506127d4816127ae565b92915050565b6000602082840312156127f0576127ef612624565b5b60006127fe848285016127c5565b91505092915050565b600073ffffffffffffffffffffffffffffffffffffffff82169050919050565b600061283282612807565b9050919050565b61284281612827565b82525050565b600060208201905061285d6000830184612839565b92915050565b61286c81612827565b811461287757600080fd5b50565b60008135905061288981612863565b92915050565b600080604083850312156128a6576128a5612624565b5b60006128b48582860161287a565b92505060206128c5858286016127c5565b9150509250929050565b6000806000606084860312156128e8576128e7612624565b5b60006128f68682870161287a565b93505060206129078682870161287a565b9250506040612918868287016127c5565b9150509250925092565b6000806040838503121561293957612938612624565b5b6000612947858286016127c5565b9250506020612958858286016127c5565b9150509250929050565b60006020828403121561297857612977612624565b5b60006129868482850161287a565b91505092915050565b612998816127a4565b82525050565b60006020820190506129b3600083018461298f565b92915050565b600080fd5b600080fd5b7f4e487b7100000000000000000000000000000000000000000000000000000000600052604160045260246000fd5b6129fb82612738565b810181811067ffffffffffffffff82111715612a1a57612a196129c3565b5b80604052505050565b6000612a2d61261a565b9050612a3982826129f2565b919050565b600067ffffffffffffffff821115612a5957612a586129c3565b5b612a6282612738565b9050602081019050919050565b82818337600083830152505050565b6000612a91612a8c84612a3e565b612a23565b905082815260208101848484011115612aad57612aac6129be565b5b612ab8848285612a6f565b509392505050565b600082601f830112612ad557612ad46129b9565b5b8135612ae5848260208601612a7e565b91505092915050565b60008060408385031215612b0557612b04612624565b5b600083013567ffffffffffffffff811115612b2357612b22612629565b5b612b2f85828601612ac0565b925050602083013567ffffffffffffffff811115612b5057612b4f612629565b5b612b5c85828601612ac0565b9150509250929050565b612b6f816126b3565b8114612b7a57600080fd5b50565b600081359050612b8c81612b66565b92915050565b60008060408385031215612ba957612ba8612624565b5b6000612bb78582860161287a565b9250506020612bc885828601612b7d565b9150509250929050565b600067ffffffffffffffff821115612bed57612bec6129c3565b5b612bf682612738565b9050602081019050919050565b6000612c16612c1184612bd2565b612a23565b905082815260208101848484011115612c3257612c316129be565b5b612c3d848285612a6f565b509392505050565b600082601f830112612c5a57612c596129b9565b5b8135612c6a848260208601612c03565b91505092915050565b60008060008060808587031215612c8d57612c8c612624565b5b6000612c9b8782880161287a565b9450506020612cac8782880161287a565b9350506040612cbd878288016127c5565b925050606085013567ffffffffffffffff811115612cde57612cdd612629565b5b612cea87828801612c45565b91505092959194509250565b60008060408385031215612d0d57612d0c612624565b5b6000612d1b8582860161287a565b9250506020612d2c8582860161287a565b9150509250929050565b7f4e487b7100000000000000000000000000000000000000000000000000000000600052602260045260246000fd5b60006002820490506001821680612d7d57607f821691505b602082108103612d9057612d8f612d36565b5b50919050565b7f4552433732313a20617070726f76656420717565727920666f72206e6f6e657860008201527f697374656e7420746f6b656e0000000000000000000000000000000000000000602082015250565b6000612df2602c836126f4565b9150612dfd82612d96565b604082019050919050565b60006020820190508181036000830152612e2181612de5565b9050919050565b7f4552433732313a20617070726f76616c20746f2063757272656e74206f776e6560008201527f7200000000000000000000000000000000000000000000000000000000000000602082015250565b6000612e846021836126f4565b9150612e8f82612e28565b604082019050919050565b60006020820190508181036000830152612eb381612e77565b9050919050565b7f4552433732313a20617070726f76652063616c6c6572206973206e6f74206f7760008201527f6e6572206e6f7220617070726f76656420666f7220616c6c0000000000000000602082015250565b6000612f166038836126f4565b9150612f2182612eba565b604082019050919050565b60006020820190508181036000830152612f4581612f09565b9050919050565b7f7265717565737420666f72206e6f6e206578697374656e7420746f6b656e0000600082015250565b6000612f82601e836126f4565b9150612f8d82612f4c565b602082019050919050565b60006020820190508181036000830152612fb181612f75565b9050919050565b7f4f6e6c79206f776e65722063616e206769667400000000000000000000000000600082015250565b6000612fee6013836126f4565b9150612ff982612fb8565b602082019050919050565b6000602082019050818103600083015261301d81612fe1565b9050919050565b7f4552433732313a207472616e736665722063616c6c6572206973206e6f74206f60008201527f776e6572206e6f7220617070726f766564000000000000000000000000000000602082015250565b60006130806031836126f4565b915061308b82613024565b604082019050919050565b600060208201905081810360008301526130af81613073565b9050919050565b7f546f6b656e2069732063757272656e746c79206e6f7420666f722073616c6521600082015250565b60006130ec6020836126f4565b91506130f7826130b6565b602082019050919050565b6000602082019050818103600083015261311b816130df565b9050919050565b7f427579657220616464726573732063616e6e6f74206265207a65726f00000000600082015250565b6000613158601c836126f4565b915061316382613122565b602082019050919050565b600060208201905081810360008301526131878161314b565b9050919050565b7f43616e6e6f7420627579206f776e6564204e4654000000000000000000000000600082015250565b60006131c46014836126f4565b91506131cf8261318e565b602082019050919050565b600060208201905081810360008301526131f3816131b7565b9050919050565b7f4e487b7100000000000000000000000000000000000000000000000000000000600052601260045260246000fd5b7f4e487b7100000000000000000000000000000000000000000000000000000000600052601160045260246000fd5b6000613263826127a4565b915061326e836127a4565b92508261327e5761327d6131fa565b5b828204905092915050565b7f596f7520646f6e74206861766520656e6f756768206361736800000000000000600082015250565b60006132bf6019836126f4565b91506132ca82613289565b602082019050919050565b600060208201905081810360008301526132ee816132b2565b9050919050565b7f546f6b656e20646f6573206e6f74206578697374210000000000000000000000600082015250565b600061332b6015836126f4565b9150613336826132f5565b602082019050919050565b6000602082019050818103600083015261335a8161331e565b9050919050565b7f546f6b656e206973206e6f7420666f722073616c652c2073657420697420736160008201527f6c65206669727374210000000000000000000000000000000000000000000000602082015250565b60006133bd6029836126f4565b91506133c882613361565b604082019050919050565b600060208201905081810360008301526133ec816133b0565b9050919050565b7f4f6e6c79206f776e65722063616e20736574207468652076616c756521000000600082015250565b6000613429601d836126f4565b9150613434826133f3565b602082019050919050565b600060208201905081810360008301526134588161341c565b9050919050565b7f4552433732313a206f776e657220717565727920666f72206e6f6e657869737460008201527f656e7420746f6b656e0000000000000000000000000000000000000000000000602082015250565b60006134bb6029836126f4565b91506134c68261345f565b604082019050919050565b600060208201905081810360008301526134ea816134ae565b9050919050565b7f4552433732313a2062616c616e636520717565727920666f7220746865207a6560008201527f726f206164647265737300000000000000000000000000000000000000000000602082015250565b600061354d602a836126f4565b9150613558826134f1565b604082019050919050565b6000602082019050818103600083015261357c81613540565b9050919050565b7f4f776e61626c653a2063616c6c6572206973206e6f7420746865206f776e6572600082015250565b60006135b96020836126f4565b91506135c482613583565b602082019050919050565b600060208201905081810360008301526135e8816135ac565b9050919050565b7f45524337323155524953746f726167653a2055524920717565727920666f722060008201527f6e6f6e6578697374656e7420746f6b656e000000000000000000000000000000602082015250565b600061364b6031836126f4565b9150613656826135ef565b604082019050919050565b6000602082019050818103600083015261367a8161363e565b9050919050565b600081905092915050565b6000613697826126e9565b6136a18185613681565b93506136b1818560208601612705565b80840191505092915050565b60006136c9828561368c565b91506136d5828461368c565b91508190509392505050565b7f4f6e6c79206f776e65722063616e20736574206120746f6b656e20666f72207360008201527f616c652100000000000000000000000000000000000000000000000000000000602082015250565b600061373d6024836126f4565b9150613748826136e1565b604082019050919050565b6000602082019050818103600083015261376c81613730565b9050919050565b7f546f6b656e20646f6573206e6f74206578697374000000000000000000000000600082015250565b60006137a96014836126f4565b91506137b482613773565b602082019050919050565b600060208201905081810360008301526137d88161379c565b9050919050565b7f546f6b656e20697320616c72656164792073657420746f206e6f7420666f722060008201527f73616c6500000000000000000000000000000000000000000000000000000000602082015250565b600061383b6024836126f4565b9150613846826137df565b604082019050919050565b6000602082019050818103600083015261386a8161382e565b9050919050565b7f4f6e6c7920746f6b656e206f776e65722063616e207365742076616c75650000600082015250565b60006138a7601e836126f4565b91506138b282613871565b602082019050919050565b600060208201905081810360008301526138d68161389a565b9050919050565b7f4f776e61626c653a206e6577206f776e657220697320746865207a65726f206160008201527f6464726573730000000000000000000000000000000000000000000000000000602082015250565b60006139396026836126f4565b9150613944826138dd565b604082019050919050565b600060208201905081810360008301526139688161392c565b9050919050565b7f4552433732313a207472616e736665722066726f6d20696e636f72726563742060008201527f6f776e6572000000000000000000000000000000000000000000000000000000602082015250565b60006139cb6025836126f4565b91506139d68261396f565b604082019050919050565b600060208201905081810360008301526139fa816139be565b9050919050565b7f4552433732313a207472616e7366657220746f20746865207a65726f2061646460008201527f7265737300000000000000000000000000000000000000000000000000000000602082015250565b6000613a5d6024836126f4565b9150613a6882613a01565b604082019050919050565b60006020820190508181036000830152613a8c81613a50565b9050919050565b6000613a9e826127a4565b9150613aa9836127a4565b925082821015613abc57613abb613229565b5b828203905092915050565b6000613ad2826127a4565b9150613add836127a4565b9250827fffffffffffffffffffffffffffffffffffffffffffffffffffffffffffffffff03821115613b1257613b11613229565b5b828201905092915050565b7f4552433732313a206f70657261746f7220717565727920666f72206e6f6e657860008201527f697374656e7420746f6b656e0000000000000000000000000000000000000000602082015250565b6000613b79602c836126f4565b9150613b8482613b1d565b604082019050919050565b60006020820190508181036000830152613ba881613b6c565b9050919050565b7f4552433732313a206d696e7420746f20746865207a65726f2061646472657373600082015250565b6000613be56020836126f4565b9150613bf082613baf565b602082019050919050565b60006020820190508181036000830152613c1481613bd8565b9050919050565b7f4552433732313a20746f6b656e20616c7265616479206d696e74656400000000600082015250565b6000613c51601c836126f4565b9150613c5c82613c1b565b602082019050919050565b60006020820190508181036000830152613c8081613c44565b9050919050565b7f45524337323155524953746f726167653a2055524920736574206f66206e6f6e60008201527f6578697374656e7420746f6b656e000000000000000000000000000000000000602082015250565b6000613ce3602e836126f4565b9150613cee82613c87565b604082019050919050565b60006020820190508181036000830152613d1281613cd6565b9050919050565b7f4552433732313a20617070726f766520746f2063616c6c657200000000000000600082015250565b6000613d4f6019836126f4565b9150613d5a82613d19565b602082019050919050565b60006020820190508181036000830152613d7e81613d42565b9050919050565b7f4552433732313a207472616e7366657220746f206e6f6e20455243373231526560008201527f63656976657220696d706c656d656e7465720000000000000000000000000000602082015250565b6000613de16032836126f4565b9150613dec82613d85565b604082019050919050565b60006020820190508181036000830152613e1081613dd4565b9050919050565b7f4552433732314d657461646174613a2055524920717565727920666f72206e6f60008201527f6e6578697374656e7420746f6b656e0000000000000000000000000000000000602082015250565b6000613e73602f836126f4565b9150613e7e82613e17565b604082019050919050565b60006020820190508181036000830152613ea281613e66565b9050919050565b600081519050919050565b600082825260208201905092915050565b6000613ed082613ea9565b613eda8185613eb4565b9350613eea818560208601612705565b613ef381612738565b840191505092915050565b6000608082019050613f136000830187612839565b613f206020830186612839565b613f2d604083018561298f565b8181036060830152613f3f8184613ec5565b905095945050505050565b600081519050613f598161265a565b92915050565b600060208284031215613f7557613f74612624565b5b6000613f8384828501613f4a565b91505092915050565b6000613f97826127a4565b91507fffffffffffffffffffffffffffffffffffffffffffffffffffffffffffffffff8203613fc957613fc8613229565b5b600182019050919050565b6000613fdf826127a4565b9150613fea836127a4565b925082613ffa57613ff96131fa565b5b828206905092915050565b7f4e487b7100000000000000000000000000000000000000000000000000000000600052603260045260246000fdfea264697066735822122037933e824bdec6501012f44865ddff7842f930b540921590b682325c08d756ef64736f6c634300080d0033",
  "immutableReferences": {},
  "source": "// SPDX-License-Identifier: MIT\npragma solidity ^0.8.0;\n\nimport \"@openzeppelin/contracts/utils/Counters.sol\";\nimport \"@openzeppelin/contracts/access/Ownable.sol\";\nimport \"@openzeppelin/contracts/token/ERC721/extensions/ERC721URIStorage.sol\";\n\n\ncontract NFT is Ownable, ERC721URIStorage {\n    using Counters for Counters.Counter;\n    using Strings for uint256;\n\n    string private baseURI;\n    string private baseExtension = \".json\";\n\n \n\n    mapping(uint256 => bool) private _tokenForSale;\n    mapping(uint256 => uint256) private _tokenPrice;\n\n    Counters.Counter private _tokenIds;\n    mapping(string => bool) private _tokenExists;\n    uint256[] private totalTokens;\n\n    constructor(\n        string memory _initBaseURI,\n        string memory tokenName,\n        string memory tokenSymbol\n       \n    ) ERC721(tokenName, tokenSymbol) {\n        setBaseURI(_initBaseURI);\n       \n    }\n\n    function mint(string memory _tokenURI, string memory _setBaseURI)\n        public\n        returns (uint256)\n    {\n        _tokenIds.increment();\n        uint256 newItemId = _tokenIds.current();\n        totalTokens.push(newItemId);\n        _mint(msg.sender, newItemId);\n        _tokenForSale[newItemId] = false;\n        setBaseURI(_setBaseURI);\n        _setTokenURI(newItemId, _tokenURI);\n        return newItemId;\n    }\n\n    // function mintInBatch(uint256 noOfTokens) public {\n    //     for (uint256 i = 0; i < noOfTokens; i++) {\n    //         mint();\n    //     }\n    // }\n\n   \n\n    function setBaseURI(string memory _newBaseURI) internal {\n        baseURI = _newBaseURI;\n    }\n\n    function _baseURI() internal view virtual override returns (string memory) {\n        return baseURI;\n    }\n\n    function setTokenForSale(uint256 tokenId, uint256 price) public {\n        require(_exists(tokenId), \"Token does not exist!\");\n        require(\n            ownerOf(tokenId) == _msgSender(),\n            \"Only owner can set a token for sale!\"\n        );\n        _tokenForSale[tokenId] = true;\n        _tokenPrice[tokenId] = price;\n    }\n\n    function changeTokenPrice(uint256 tokenId, uint256 price) public {\n        require(_exists(tokenId), \"Token does not exist!\");\n        require(\n            _tokenForSale[tokenId],\n            \"Token is not for sale, set it sale first!\"\n        );\n        require(\n            ownerOf(tokenId) == _msgSender(),\n            \"Only owner can set the value!\"\n        );\n        _tokenPrice[tokenId] = price;\n    }\n\n    function buyNFT(uint256 tokenId) public payable {\n        require(_tokenForSale[tokenId], \"Token is currently not for sale!\");\n        address owner = ownerOf(tokenId);\n        require(_msgSender()!= address(0), \"Buyer address cannot be zero\");\n        require(_msgSender() != owner, \"Cannot buy owned NFT\");\n        uint256 userBalance = msg.sender.balance / 10**18;\n        uint256 tokenPrice = getTokenPrice(tokenId);\n        require(userBalance > tokenPrice, \"You dont have enough cash\");\n        payable(owner).transfer(msg.value);\n        _transfer(owner, _msgSender(), tokenId);\n        _tokenForSale[tokenId] = false;\n    }\n\n    function removeTokenFromSale(uint256 tokenId) public {\n        require(_exists(tokenId), \"Token does not exist\");\n        require(_tokenForSale[tokenId], \"Token is already set to not for sale\");\n        require(\n            ownerOf(tokenId) == _msgSender(),\n            \"Only token owner can set value\"\n        );\n        _tokenForSale[tokenId] = false;\n    }\n\n    function giftToken(address receiver, uint256 tokenId) public {\n        address owner = ownerOf(tokenId);\n        require(_exists(tokenId), \"request for non existent token\");\n        require(_msgSender() == owner, \"Only owner can gift\");\n        _transfer(owner, receiver, tokenId);\n        _tokenForSale[tokenId] = false;\n    }\n\n    function isTokenForSale(uint256 tokenId) public view returns (bool) {\n        return _tokenForSale[tokenId];\n    }\n\n    function getTokenPrice(uint256 tokenId) public view returns (uint256) {\n        return _tokenPrice[tokenId];\n    }\n}",
  "sourcePath": "/home/deepanshu.tyagi/Desktop/kellton-nft-frontend/src/contracts/NFT.sol",
  "compiler": {
    "name": "solc",
    "version": "0.8.13+commit.abaa5c0e.Emscripten.clang"
  },
  "schemaVersion": "3.4.4",
  "updatedAt": "2022-05-17T08:47:57.117Z",
  "networkType": "ethereum",
  "devdoc": {
    "kind": "dev",
    "methods": {
      "approve(address,uint256)": {
        "details": "See {IERC721-approve}."
      },
      "balanceOf(address)": {
        "details": "See {IERC721-balanceOf}."
      },
      "getApproved(uint256)": {
        "details": "See {IERC721-getApproved}."
      },
      "isApprovedForAll(address,address)": {
        "details": "See {IERC721-isApprovedForAll}."
      },
      "name()": {
        "details": "See {IERC721Metadata-name}."
      },
      "owner()": {
        "details": "Returns the address of the current owner."
      },
      "ownerOf(uint256)": {
        "details": "See {IERC721-ownerOf}."
      },
      "renounceOwnership()": {
        "details": "Leaves the contract without owner. It will not be possible to call `onlyOwner` functions anymore. Can only be called by the current owner. NOTE: Renouncing ownership will leave the contract without an owner, thereby removing any functionality that is only available to the owner."
      },
      "safeTransferFrom(address,address,uint256)": {
        "details": "See {IERC721-safeTransferFrom}."
      },
      "safeTransferFrom(address,address,uint256,bytes)": {
        "details": "See {IERC721-safeTransferFrom}."
      },
      "setApprovalForAll(address,bool)": {
        "details": "See {IERC721-setApprovalForAll}."
      },
      "supportsInterface(bytes4)": {
        "details": "See {IERC165-supportsInterface}."
      },
      "symbol()": {
        "details": "See {IERC721Metadata-symbol}."
      },
      "tokenURI(uint256)": {
        "details": "See {IERC721Metadata-tokenURI}."
      },
      "transferFrom(address,address,uint256)": {
        "details": "See {IERC721-transferFrom}."
      },
      "transferOwnership(address)": {
        "details": "Transfers ownership of the contract to a new account (`newOwner`). Can only be called by the current owner."
      }
    },
    "version": 1
  },
  "userdoc": {
    "kind": "user",
    "methods": {},
    "version": 1
  }
}